:020000022000DC
:10600000000004202D4103006D4103006F41030097
:10601000714103007341030075410300000000005B
:10602000000000000000000000000000A940030084
:106030007941030000000000C94003007D410300D6
:10604000594303007F4103007F410300C5B30200B1
:106050007F4103007F4103007F4103007F41030034
:106060007F4103007F4103007F4103007F41030024
:106070007F4103007F4103007F4103007F41030014
:106080007F410300393E03007F4103007F4103004D
:106090007F4103007F410300DDD402007F41030004
:1060A0007F4103007F4103007F4103007F410300E4
:1060B0007F4103007F41030000000000000000005A
:1060C0007F4103007F4103007F41030045470300F8
:1060D0007F4103007F4103007F410300557B0200A5
:1060E0007F4103007F4103007F4103000000000067
:1060F000000000007F41030000000000754703001E
:10610000000000000000000000000000000000008F
:10611000000000000000000000000000000000007F
:10612000000000000000000000000000000000006F
:10613000000000000000000000000000000000005F
:10614000000000000000000000000000000000004F
:10615000000000000000000000000000000000003F
:10616000000000000000000000000000000000002F
:10617000000000000000000000000000000000001F
:10618000000000000000000000000000000000000F
:1061900000000000000000000000000000000000FF
:1061A00000000000000000000000000000000000EF
:1061B00000000000000000000000000000000000DF
:1061C00000000000000000000000000000000000CF
:1061D00000000000000000000000000000000000BF
:1061E00000000000000000000000000000000000AF
:1061F000000000000000000000000000000000009F
:10620000F1EE103A43F08073E1EE103A704700BFB0
:1062100010B5054C237833B9044B13B10448AFF3E0
:1062200000800123237010BDB8630020000000002F
:10623000240E040008B5034B1BB103490348AFF318
:10624000008008BD00000000BC630020240E040094
:10625000154B002B08BF134B9D46A3F5803A002138
:106260008B460F461348144A121A13F03FFF0F4B88
:10627000002B00D098470E4B002B00D098470020F1
:10628000002104000D000D48002802D00C48AFF397
:10629000008013F0C1FE200029000DF089FF13F0EB
:1062A00095FE00BF00000800000004200000000070
:1062B00000000000B8630020B89B00200000000030
:1062C0000000000070470346007C884207D021B9D7
:1062D00098681060197401207047D868F9E70020A9
:1062E00070477047044A02F108011C3242600022E4
:1062F00001600282704700BF48D5030037B5064CE5
:10630000C26004F108054FF480721C34C0E90141F9
:106310000560028203B030BD48D5030082B001237E
:10632000C0E90212437402B07047807C02210EF073
:106330008BBEA0F10400FFF7F8BF08B5807C0EF01B
:1063400007FFB0FA80F0400908BDA0F10400FFF794
:10635000F4BF000010B50446FFF7C4FF034B03F180
:1063600008021C3322606360204610BD6CD5030018
:1063700037B50D46CDE9003211461A460446FFF7FF
:10638000BDFF064BA57403F108021C3320462260B2
:106390006360FFF7CAFF204603B030BD6CD5030031
:1063A0000368C9B21B68184770470000014804F031
:1063B00081BE00BF84740020002242718271C271CC
:1063C00002728273C273027442748274704713B58E
:1063D000044600206071A071E0712072A073E07328
:1063E0002074607404986373C4F809000123204684
:1063F00021712260A37402B010BD000010B5C0B0BE
:106400000023754AADF8FE30744B7549754CDFF8C2
:1064100004C2DFF804E2CDE90023734B734ACDE9EF
:106420000213734B7349CDE90443734BCDE906C3A3
:10643000724BCDE908E303F5202309330A9303F1F6
:106440000A130B9303F109130C9303F10A130D9331
:1064500003F109130E9303F10A130F9303F10913C8
:10646000109303F10A13119303F10913129303F12B
:106470000A13139303F10913149303F10A131593E9
:1064800003F510230A33169303F5202309331793DA
:106490005B4BCDE9182303F510230A331A9303F558
:1064A000202309331B93574BCDE91C1303F510230D
:1064B0000A331E9303F5202309331F9303F10A13B4
:1064C000209303F10913219303F10A13229303F19B
:1064D0000913239303F10A13249303F1091325935A
:1064E00003F10A13269303F10913279303F10A1307
:1064F000289303F10913299303F10A132A9303F54F
:1065000010230A332B9303F5202309332C9303F52F
:1065100010230A332D933C4B2E9303F510230A339B
:106520002F9303F5202309333093384B319303F530
:1065300020230933329303F510230A33339303F5F1
:1065400020230933349303F10A13359303F109131C
:10655000369303F10A13379303F10913389303F1C8
:106560000A13399303F109133A9303F10A133B9386
:1065700003F109133C9303F10A133D9303F109134B
:106580003E9340F2FD23ADF8FC30407B0EF02EFD33
:106590001F490C8880B23DF814200CB10A3A92B21F
:1065A000631C7E2C3DF813309CBF0A339BB28242A1
:1065B00001D883420DD26B46002233F8024B84424D
:1065C00002D81C88844203D2013292B27F2AF4D1CD
:1065D0000A80088840B010BDA000AA00AF00B30038
:1065E000B800BD00CB00D000C200C6008A018E01F9
:1065F000D500D900B001B401E800EC00FB00FF00B9
:1066000093019801B901BE015B02600278027C022D
:10661000D4630020DE00E300F100F60082B0012226
:106620000160827402B0704782B00122C0F8091084
:10663000827402B07047437C8B421FBFC172D0F896
:1066400009301360417414BF012000207047704767
:106650000346007B88421FBF997298681060012032
:1066600014BF19730020704770470000044A02F1FC
:1066700008011C324260002201608281704700BF25
:1066800090D5030013B5064A02F108041C32C0E994
:1066900001214FF480720460828102B010BD00BFFE
:1066A00090D5030083680020DAB262F30700C3F3D9
:1066B000072262F30F20C3F3074262F317401B0E59
:1066C00082B063F31F6002B07047000010B5214C28
:1066D0002149204600F017F92046204900F013F91F
:1066E00020461F4900F00FF920461E4900F00BF923
:1066F00020461D4900F007F920461C4900F003F927
:1067000020461B4900F02AF920461A4900F010F9EA
:106710002046194900F023F91849204600F03AF9BB
:106720002046174C00F074F91648FFF73FFE20464C
:106730004FF4E13100F0D8FE012114200EF084FC6A
:10674000012114200EF0E8FC20460F49BDE810405E
:106750000BF086BFB0640020D86300206464002082
:10676000106400202C64002048640020F4630020A2
:106770005C6500209D64002074650020806400201A
:10678000046800209C640020B4D5030008B50448C8
:1067900000F030FABDE80840014800F0C3BB00BF7C
:1067A000B064002007B52C4B2C4A1B6812682C489B
:1067B0000D21FFF7DDFD2B4B2B4A1B6812682B4880
:1067C0000521FFF7D5FD2A4B2A4A1B6812682A4883
:1067D0001421FFF7CDFD294B294A1B68126829486F
:1067E0000621FFF7C5FD284B284A1B681268284878
:1067F0001C21FFF7BDFD274B274A1B68126827485D
:106800001E21FFF7B5FD264B26481A68022100F02D
:10681000D3FC254B254A18680090126824480323AE
:106820001D21FFF7D4FD234B23481B6811220F21A4
:1068300000F0FCFC214B224A1B68126821481F21F2
:10684000FFF796FD204800F047F8204803B05DF8B8
:1068500004EBFFF7A9BD00BF086000200460002022
:10686000D8630020306000202C6000206464002089
:1068700018600020146000201064002020600020B8
:106880001C6000202C640020286000202460002070
:1068900048640020106000200C600020F463002099
:1068A000446000205C650020406000203C600020C7
:1068B0009D6400204860002074650020386000203E
:1068C0003460002080640020B06400209C640020BC
:1068D000704703681B69184710B50446FFF73AFD77
:1068E00004F11C00FFF768FD04F13000FFF732FDF2
:1068F00004F14C0000F088FC002384F86C3084F82C
:10690000AB30204610BD437C8BB98B688360CB686D
:10691000C3600B7C03744B7C43748B7C8374D1F811
:106920001330C0F81330D1F81730C0F81730704763
:1069300090F82E3030B583B90B4600F11C0201F1FE
:10694000100518685968144603C40833AB42224640
:10695000F7D119889B78A370218030BD70478B6870
:1069600043650B7B80F858304B7B80F859308B7B2C
:1069700080F85A30CB7B80F85B300B69C3654B697C
:1069800003668B6943660B7F80F868304B7F80F825
:10699000693070478B688363CB68C3630B7C80F876
:1069A00040304B7C80F841308B7C80F84230D1F80D
:1069B0001330C0F84330D1F81730C0F84730704773
:1069C00010B5114C0621204604F0C4FD204604F009
:1069D000AFFD0E49204604F07AFD04F13C0004F0BE
:1069E00087FD2046012104F0DDFD2046F422202110
:1069F00004F0D4FD20461E2104F0CEFD20460021E7
:106A0000BDE8104004F02CBE987B0020F06600200A
:106A100070B5234C0646234800F072FB2046042143
:106A200006F036FB00220121204606F057FB042128
:106A3000204606F0D5FC2046012106F0FCFC1A4851
:106A40001A491B4C132206F09FFE132219491648BF
:106A500006F096FE144806F0D1FE636D0025186816
:106A600047F6122106F079FF4FF6FF73A4F858504D
:106A7000C4E91A33C4E9185584F85A500BF07BFE68
:106A80000323656784F87030C4F8000184F8F85077
:106A9000C4F8FC503046BDE87040FFF791BF00BF1E
:106AA0005875002090670020A8660020C9D5030013
:106AB00094650020DDD50300F8B5E02905460C46B5
:106AC0009DF8180017461E461ED8411EC9B20F2950
:106AD00026D860B2002823DA6B6D0143C9B218686A
:106AE000FFF7F7FE6B6D07F07F01186804F0EF0405
:106AF000FFF7EFFEC02C13D06B6D06F07F01186816
:106B0000BDE8F840FFF7E5BEF72909D90834E4B23B
:106B1000012303FA04F414F0DD0F01D06B6DEEE7EE
:106B2000F8BD000070B52A4C2A4E204606F030FE13
:106B30002046294C2949324613F010FA802120467C
:106B400007F05AFB32462649204613F007FA25483B
:106B500000F048FA244B1C60244C0025C4E914536F
:106B60004FF6FF73C4E91A3303232946C4E90055DD
:106B7000C4E90255C4E90455C4E90655C4E90855F9
:106B8000C4E90A55C4E90C55C4E90E55C4E91055C9
:106B9000C4E91255C4E91855A4F8585084F85A505D
:106BA00084F87030656784F8F850802204F178002A
:106BB00013F09CFAA4F80C51C4E94055C4F80851EC
:106BC000324620460A49BDE8704013F0C7B900BFFD
:106BD000A866002000600020F0660020CD6F020053
:106BE000996F020090670020946700209465002050
:106BF000D16802001FB50446FFF79FFB03AAC1B28C
:106C00002046FFF760FBA0B19DF80F309DF80D20E6
:106C10009DF80C101A4800939DF80E30FFF74CFFBA
:106C20009DF80F309DF80E209DF80D10154800F0CE
:106C3000DBF91C342046FFF7E1FB03AAC1B2204672
:106C4000FFF7F9FCD0B19DF80F309DF80D209DF8AD
:106C50000C100B4800939DF80E30FFF72DFF9DF8A8
:106C60000E209DF80D1007489DF80F3000F0BCF97C
:106C70009DF80E1004480A220BF029FD04B010BD47
:106C80009465002090670020046800202DE9F04101
:106C9000DFF84880104D04460126404600F0B0FB66
:106CA000002817DD94F8AB70A7B9404600F0C8FB88
:106CB000C0B2FF280AD02B78E2180133DBB23D2B9B
:106CC00082F86D0000D93D232B70E6E72F7084F821
:106CD000AB60E2E7BDE8F081A46600200468002014
:106CE00070B50F489DF810601546C9B21C4604F0F7
:106CF000ADFA290A0A48FFF753FBE9B20848084DE4
:106D0000FFF74EFB2644B44205D014F8011B284679
:106D100004F089F9F7E7BDE87040014804F0F9BADA
:106D20008474002038B5CCB215460F48214604F0D3
:106D30008DFA290A0C48FFF733FBE9B20A48FFF73E
:106D40002FFB094804F0E5FA07480122214604F028
:106D50007AFA054804F064F920B1034804F077F9A1
:106D6000C0B238BDFF20FCE7847400202DE9F04359
:106D70008E0195B0324650210446FFF7D3FFDFF86D
:106D8000D480054604AF06F13E09FF2D10D04E45D4
:106D90000ED029460A22404601360BF096FC3246B8
:106DA0005021204607F8015BFFF7BCFF0546ECE7E2
:106DB0009DF811308DF808309DF812308DF80930AB
:106DC0009DF813308DF80A309DF814308DF80B3093
:106DD0009DF815308DF80C309DF816308DF80D307B
:106DE0009DF817308DF80E309DF818308DF80F3063
:106DF000DDE902122046FFF791FA9DF819308DF86F
:106E000008309DF81A308DF809309DF81B308DF848
:106E10000A309DF81C308DF80B309DF81D308DF830
:106E20000C309DF81E308DF80D309DF81F30029902
:106E30008DF80E3004F11C009DF8203001908DF883
:106E40000F30FFF7EBFB0399019815B0BDE8F04355
:106E5000FFF7EABB0468002090F8AB302DE9F3415E
:106E600004468BB390F86D20194FDFF868803E23FD
:106E700092015021009300F16D03FFF731FF642070
:106E80000BF084FC94F86D60B60132465021204628
:106E9000FFF748FF0546FF2D10D029460A22384645
:106EA00001360BF012FC324650212046FFF73AFF24
:106EB0004146054638460BF0C6FBECE704480BF0AC
:106EC000C7FB002384F8AB3002B0BDE8F08100BFFF
:106ED00004680020840B040037B500F14C0504461B
:106EE000284600F0DFF901AAC1B22846FFF7B0FB3F
:106EF00070B19DF806100A4800F0B8F89DF8063009
:106F000023B9012384F86C3003B030BD0023F9E7C6
:106F10002046FFF7BBFE2046FFF79EFFF4E700BFC9
:106F20009067002073B500F14C050446284600F038
:106F3000B9F96A46C1B22846FFF78AFB50B19DF8FD
:106F40000210144800F092F89DF80230F3B90123C2
:106F500084F86C3004F130063046FFF7EEF96A46EB
:106F6000C1B23046FFF7AFF948B12846FFF79AFBA8
:106F7000C0F30740411EC9B22046FFF7F7FE94F860
:106F80006C302BB12046FFF7A7FFF8E70023DFE7BF
:106F900002B070BD906700200A4B10B50360283323
:106FA0000446836180300DF00BFE04F1280004F0EC
:106FB00049FC2046044B40F8083B05F01CFF2046E6
:106FC00010BD00BFF4D8030030D8030010B5044B47
:106FD000044640F8083B05F00EFF204610BD00BFF8
:106FE00030D8030070470000F8B51A4C204615460B
:106FF0000E461F4608F089FB0023174923612046EF
:107000000BF02EFB4FF490130A22394620462361E1
:107010000BF05BFB30231149236120460BF020FB72
:107020000F4B23610A22314620460BF050FB5C23B4
:107030000C49236120460BF013FB0B4B23612946BF
:1070400020460A220BF043FB2046BDE8F84008F03A
:1070500013BE00BF98670020F1D50300F4D50300EC
:1070600030001200F7D503005C00120038B50F4C59
:1070700020460D4608F049FB00230D4923612046B8
:107080000BF0EEFA4FF4901323614DB10A2229461A
:1070900020460BF01AFBBDE83840044808F0ECBD70
:1070A000044920460BF0CFFAF5E700BF98670020AF
:1070B000FAD5030000D603001FB50B4B0B4A0C4C4E
:1070C000CDE901324FF0FF3300932022094B80219C
:1070D000204608F011FA084A0849204604B0BDE8E5
:1070E000104012F03BBF00BF801A0600A0860100CE
:1070F00098670020847400200060002055F502008D
:1071000013B5184C012300933C220221204608F0BD
:107110000BFB00B9FEE72046022108F050F84FF0C3
:10712000011302212046636107F0E2FD204608F0CA
:10713000ECFA00230C49236120460BF091FA30232E
:107140000A49236120460BF08BFA5C23084923612E
:1071500020460BF085FA204602B0BDE8104008F04A
:107160008BBD00BF98670020F1D50300F4D5030064
:10717000F7D50300704737B50446807B0DF036FF26
:107180002269237D824205460DD0121A0A2A0AD9A5
:107190007F2300930023194640F2FF320BF0E0FA00
:1071A000C3B223752561184603B030BDA0F10400B9
:1071B000FFF7E1BF7047000037B50D4611460446A2
:1071C0000192FFF75FFA064BA57303F108021C3327
:1071D00063602046002322602361237503B030BD25
:1071E00008D6030010B504460221807B0DF02CFF69
:1071F000E07B02210DF028FF00236377236110BD9F
:10720000A0F10400FFF7EEBF10B50446FFF72EFA19
:10721000054B03F108021C3363600023C4E9043307
:107220002260A361204610BD48D6030073B50E4608
:107230001946044615460193FFF724FA094BA67335
:1072400003F108021C33636000232046C4E90433C1
:107250002260E573A361A383FFF7C4FF204602B059
:1072600070BD00BF48D60300F8B50446467FC07B1A
:107270000DF06EFF0746A07B94F91D500DF068FFDE
:10728000237F7E4003F00F024540054B45EA46054B
:10729000EDB203EB8203585D207700F03000F8BDBB
:1072A0002CD6030010B50446FFF7DEFF48B1236972
:1072B00010280CBF03F1FF3301330A2B88BF0023D2
:1072C0002361206910BDA0F10400FFF7EBBF0000AF
:1072D0000146014800F062BA2468002038B500F089
:1072E000EBF800240546E0B2854203D900F004FD26
:1072F0000134F8E738BD000070B592B01E460C4668
:1073000015460021422201A812F0F0FE412E5CD960
:1073100040F60832ADF8042040F20222ADF8082011
:1073200040F20942ADF80C20631C40F20122DBB2AE
:107330002748ADF8102005228DF815208DF81E3055
:10734000242208908DF8273040F224608DF83130E7
:107350000A238DF81620ADF824001E4A1E488DF829
:10736000343040F2075306920A9001220820ADF80B
:107370003830402302218DF81C208DF82C00042287
:107380004FF411608DF83C3007238DF807108DF80D
:1073900012108DF81F20ADF82E008DF830208DF8DA
:1073A00033108DF83B108DF83F3042220B4B8DF897
:1073B000064001A928468DF80E408DF8264010930E
:1073C00012F06CFE422012B070BD0020FBE700BF3F
:1073D00024020205200105240705800305800240E0
:1073E000A0F11000FFF788BF07B503688DF80710FC
:1073F0005B6801220DF10701984703B05DF804FBBB
:1074000010B5007EFF2807D000F04CFC044608B9F8
:107410000DF0A4FA204610BD0020FCE707B5007E61
:10742000FF2804D14FF0FF3003B05DF804FB0DF1ED
:10743000070100F057FC0028F4D09DF80700F3E79F
:1074400007B5007EFF280AD001220DF1070100F0E8
:1074500035FC20B19DF8070003B05DF804FB4FF048
:10746000FF30F9E7007EFF2801D000F045BC7047EF
:10747000007EFF2801D000F099BC00207047F8B5CD
:10748000037EFF2B06460F46144612D015465DB10B
:10749000307E00F0E1FB38B12A463946307E00F0FC
:1074A0006BFC2D1A074401D1601BF8BD0DF056FA94
:1074B000EDE70020F9E70000014B1878704700BFA6
:1074C0002068002000224FF47A71C0E90121426156
:1074D000044A02F1080130320261FF2201600276A3
:1074E000704700BF7CD60300037EFF2B0CD1074AF8
:1074F00013784BB901210376054B1170436100F1FC
:107500001001044800F0F0B8704700BF2068002068
:107510006CD603002468002010B5007EFF2807D039
:1075200000F09AFB044608B90DF018FA204610BD89
:107530000024FBE707B549B940B9694600F0A2FB52
:10754000009BB3F5966F01D100F01AFB03B05DF814
:1075500004FB00000148FFF7B5BF00BF046800202E
:10756000F0B50546002004462B5D2E19002B68D08F
:1075700003F14002D2B2012A3DD9F42B3BD81A06BE
:107580001BD40122A3F55846B6F5006F33D3B3F5EB
:10759000803F14444FD31E2853DCA3F580334200B0
:1075A0009E0A0A44C3F30903A6F52056A3F5105317
:1075B00021F8106002305380D6E703F0E002C02AC1
:1075C0001BD103F01F03022206F1010C16441CF824
:1075D000017B07F0C00EBEF1800F0CD107F03F0712
:1075E000664547EA8313F2D1022A16D1A3F1800639
:1075F000B6F5F06FC6D30134B6E703F0F002E02A27
:1076000003D103F00F030322DEE703F0F802F02AB0
:10761000F1D103F007030422D6E7032A04D1A3F52E
:107620000066B6F5784FE5E7A3F58032B2F5801F26
:10763000E1D20422A6E7202803D021F8103001303F
:1076400092E7F0BDF0B5234B89B003AA044603F1DD
:107650001007154618685968164603C60833BB421A
:107660003246F7D11B8833800FCD26460FC61A4A03
:107670002B681068516833806B4603C36B4603CB9D
:10768000137A84F82030154BC4F818314FF4807306
:10769000A4F81C3104F118050123A061E16184F80C
:1076A0001E3165612022002104F5987012F01EFD44
:1076B00040F20943C4F82031094BC4F82431094B86
:1076C000C4F828310023C4F82C31042384F8503145
:1076D00009B0F0BDE1D60300F3D6030009000001B4
:1076E000B0D60300B9D60300F8B50E464569B0F828
:1076F0001811B0F81A3132680D445B1A176890F807
:107700001C1104469BB22A463046B84708B90020EF
:10771000F8BD726829188D4233D26B78042B1BD1C7
:10772000EE78A6B994F81C31013384F81C3172B19B
:1077300094F850310B2B0AD803F1480744F827205E
:107740002B7294F85031013384F8503132462B7843
:10775000002BDCD01D44DEE7052BF8D195F9023073
:10776000002BB5BF94F81D3194F81E315E1C5E1CD1
:10777000B4BF84F81D6184F81E61AE783343AB70EA
:10778000E5E7B4F818311844636980B2A4F8180129
:10779000588094F81C211A710120B9E770B504468D
:1077A0000D460126FFF74EFF40F2EF23A3804FF472
:1077B000E1310448A671FFF797FE284600F0CEF9A4
:1077C000304670BD046800202DE9F041D0F82C51FE
:1077D00088B08C1C002D3BD1684600F0D3F92246BE
:1077E00003462C46E1B28B4202F104022BD91B4D19
:1077F00004AF05F110083E46C64628686968BC46D5
:10780000ACE80300083545456746F6D11DF804701D
:10781000124D07F00F0108A8014411F8101C22F8BE
:10782000021C28686968B446ACE803000835754551
:107830006646F6D108A901EB1717013417F8101C9A
:1078400022F8041CCEE75800C0B208B0BDE8F081B1
:1078500021462846FFF784FEF6E700BFD0D6030096
:1078600010B5044679B103291BD090F850318B42F2
:107870001CD901F1480300F5AA7150F82300FFF765
:107880006FFEC0B204E0D0F82031A0F854310120DE
:107890000130400040F44070A4F8520104F5A97092
:1078A00010BD00F5A971FFF78FFFF1E70020F7E7A2
:1078B0000048704724680020014B5869704700BF9A
:1078C000246800200A4601460148FFF7C9BF00BFEF
:1078D00024680020024B186800B10069704700BF9F
:1078E000B869002010B4094C2468084611461A46AD
:1078F000BDF804302CB164691CB1A4465DF8044B9A
:10790000604700205DF8044B704700BFB869002055
:1079100010B4084C2468084611461A46BDF80430D5
:107920002CB1A4691CB1A4465DF8044B60475DF816
:10793000044B7047B869002000207047024B18685C
:1079400008B190F860007047BC6900202DE9F84349
:107950001F461F4B0446186889469046002834D0BD
:107960002C2303FB04001B4B066A456A846A002E25
:1079700008BF1E46184B002D08BF1D46174B30464A
:10798000002C08BF1C4613F096FA08280246314620
:1079900028BF0822484612F081FB284613F08BFAD4
:1079A00010280246294628BF1022404612F076FBD6
:1079B000204613F080FA042802462146384628BFA4
:1079C0000422BDE8F84312F069BBBDE8F88300BFAC
:1079D000BC690020FCD6030005D7030012D70300C2
:1079E00070B50D4E34680546A4B12C2303FB00444A
:1079F000636913B1984784F8320032682C2303FB83
:107A0000052393F832402CB923463A220221284616
:107A100000F004FF204670BDBC690020054B1B68C8
:107A200010B533B12C2404FB0030C36A0B60038E05
:107A3000138010BDBC69002008B520220023052159
:107A400000F0ECFE4FF0FF3008BD000030B40446FB
:107A5000084611461A46064B1B6833B12C2505FB18
:107A60000434E3690BB130BC1847012030BC7047C7
:107A7000BC69002030B4044608461946074B029AF8
:107A80001B6833B12C2505FB0434A3680BB130BC53
:107A900018474FF0FF3030BC704700BFBC69002072
:107AA00030B4044608461946074B029A1B6833B1A6
:107AB0002C2505FB0434E3680BB130BC18474FF0AC
:107AC000FF3030BC704700BFBC690020044B1B680E
:107AD0002BB12C2202FB0030036903B11847704719
:107AE000BC690020054B1B682BB12C2202FB003027
:107AF000836903B118470120704700BFBC690020AB
:107B000003F0D6B807B5114B402283F8272303F0C2
:107B1000DDF94FF080430024D3F838548DF800404D
:107B200068460CF0B1FB0A4B019301A80CF00AFC6B
:107B30000CF0D2FBEB0702D5204603F0B9F8002188
:107B40004FF0FF3001F0B4FFF9E700BF00E100E0C3
:107B5000017B0200002002F0B3BE000007B5002345
:107B60000322CDE9002304490448C8220BF03CFB62
:107B700003B05DF804FB00BF16D70300057B0200CD
:107B80000DF0A6B94FF08052536E1BBA0360136E0E
:107B90001BBA436008207047004870471BD703009A
:107BA00070B51A4E33680D4611466BB3012D01D0E6
:107BB000012070BD1478C4F34114012C13D0022CA1
:107BC00022D15278012A07D0022AF1D18B88072BC3
:107BD0001AD10F4A138902E0DA69AAB11378BDE815
:107BE000704002F0C3BA5278222AE1D14A88003AA2
:107BF00018BF01221A7602F0A1FA3268136A002B2C
:107C0000D6D0107E9847D3E70020D2E7C069002085
:107C10004C60002070B500F110050446284601F0C4
:107C20006CFC3F2815D9E178002001F0A5FE80B159
:107C3000284601F062FC3F28E17807D904F5367246
:107C40004023BDE87040002001F0B6BE002001F0E6
:107C5000A3FE002070BD000010B5044601F028FD11
:107C600008B9002010BD01F02BFD0028F9D104480F
:107C70004FF4567303FB0404207900F00100F1E790
:107C8000C4690020064B4FF4567202FB003050F8D6
:107C9000063F0B6083888B8083798B71704700BFB0
:107CA000C469002008B5044B4FF4567202FB003043
:107CB000103001F00AFC08BDC46900204FF456736F
:107CC00070B503FB00F4064E04F1100092B230448C
:107CD00001F025FC05463019FFF79CFF284670BDD2
:107CE000C4690020034B4FF4567202FB0030103081
:107CF00001F018BCC46900202DE9F041044601F0F0
:107D0000D7FC10B90020BDE8F08101F0D9FC06468F
:107D10000028F7D14FF45671154D4C4304F1240857
:107D2000A844404601F0D1FB0028EBD02F19304683
:107D3000B97801F021FE0028E4D004F5467425440A
:107D400029464022404601F0EAFBB978044658B182
:107D500003462A46304601F02FFE38B9054B1B6812
:107D6000DB07CFD500BECEE701F016FE2046CAE7FE
:107D7000C4690020F0ED00E00B4B70B54FF4567471
:107D800004FB0034243492B20546204601F0E5FBA2
:107D90000646204601F099FB3F2802D92846FFF706
:107DA000ABFF304670BD00BFC469002008B5044B6E
:107DB0004FF4567202FB0030243001F09EFB08BDE8
:107DC000C469002073B51B4C4FF456720021204645
:107DD00012F08CF9FF2363714FF442430125002612
:107DE000E3800823237304F138012B4600964FF4F7
:107DF000807204F110002581668101F035FB2B466D
:107E00004FF4807204F59C71009504F1240001F098
:107E10002BFB04F50E7128460AF092FE04F5227140
:107E2000C4E9076028460AF08BFEC4E90C0602B0DC
:107E300070BD00BFC469002010B5094C0023236049
:107E4000237104F11000243401F08DFB204601F071
:107E50008AFB20460121BDE8104001F0A4BB00BF11
:107E6000C4690020F7B54B79022B074603D00025E3
:107E7000284603B0F0BD8B79022BF8D11F4EB378A2
:107E80007BBB8B7833700C7809250C4403E0237896
:107E90001D44ADB21C446378242B1BD19542F6D906
:107EA0006378042B12D163790A2B0FD1144B2678F7
:107EB00001930133009302231A46A119384601F0B9
:107EC00027FD70B10E3516FA85F5ADB20B48FFF7F8
:107ED000A1FECDE7052BE3D12146384601F0F4FCA5
:107EE00028B9084B1B68DB07C1D500BEBFE7A378E4
:107EF000737023781D44ADB21C44D1E7C4690020DF
:107F0000C6690020F0ED00E038B50B461146127846
:107F100002F06002202A47D1244A8C881578A542B5
:107F200042D14C78203C032C3ED8DFE804F0021408
:107F30001731012B05D11E4A072302F017F9012042
:107F400038BD032BFBD11B4B002BF8D01849002068
:107F5000AFF30080F3E7012BF1D1ECE7012B02D165
:107F600002F0ECF8EBE7032BE9D14C8812481471CE
:107F700004F0010585F0010101F015FB0F4B002B0A
:107F8000DDD0C4F3400229460020FFF7D3FAD6E73C
:107F9000012BE5D0032BD2D1094B002BCFD0498840
:107FA0000020AFF30080CAE70020C9E7C4690020C1
:107FB000CA69002000000000E86900203575020051
:107FC000000000002DE9F3471C46374BDA788A425F
:107FD00007460E461D4607D09B788B4258D1AB789A
:107FE000B34232D001245AE003F5367103F1100098
:107FF000A2B201F0B2FA2D4B2BB92D4BEBB92A48A6
:10800000FFF708FEEBE76B79FF2BF6D005F5367925
:108010004FF0000805F1100AA045EED019F8013B19
:108020006A799A4206D1504601F05FFA10B969792F
:10803000AFF3008008F10108EEE71E4801F055FAA1
:108040000028DCD1AFF30080D9E71B4B13B100202F
:10805000AFF300800020FFF74FFE0028C2D1174881
:1080600001F033FA0028BDD1002CBBD014F03F033F
:10807000B8D1A9780193384601F07EFC019B0446F3
:108080000028AFD0A9781A46384601F095FC06E0E2
:108090000B4B1C6814F0010401D000BE00242046E4
:1080A00002B0BDE8F08700BFC469002000000000F6
:1080B00000000000D469002000000000E8690020F2
:1080C000F0ED00E002488C22002112F00FB800BF52
:1080D0001C6D00200020FFF7F5BF00002DE9F743DD
:1080E0000D4680466B79032B114604D000242046B0
:1080F00003B0BDE8F0832A79C2EBC2041234A4B203
:108100008C4205D9214B1B68DA07EFD500BEEDE79D
:108110001F4E96F801E03746BEF1000FF2D195F8F8
:1081200000C005EB0C0191F80190B9F1210FE9D1E4
:10813000C6F8881015F80CC006F1010E0236CDF80D
:1081400004E00096614401F0E3FB0028DAD0AB794B
:10815000B978012B04BFEB79FB7001233B71AB783D
:108160003B70D7F88830B3F80730FB800029BED0C9
:10817000084A4023404601F01FFC0028B7D1034BBA
:108180001B68DB07B3D500BEB1E700BFF0ED00E030
:108190001C6D0020646D002013782DE9F341154615
:1081A00003F01F02012A06460C4601D000246DE0B0
:1081B000DFF8C081AA8898F80010D2B291424746F1
:1081C000F4D113F060031FD0202BEFD16B78013B6B
:1081D0000A2BEBD801A252F823F000BF4F82020015
:1081E0001783020023830200AD810200AD810200EB
:1081F000AD810200AD810200AD810200A9820200C2
:10820000F38202002F830200012C01D001243DE003
:108210006A78062ACAD16A88120A212A0AD1D8F8AD
:108220008820002AC2D01378294602B0BDE8F04168
:1082300001F09CBF222AB9D11846FFF74BFBB8F8D2
:10824000063002462946304601F090FF1EE0012C20
:10825000DCD1EB886988402B4FEA1122184628BFF1
:10826000402011F0FF0115D0012B13D90138384BF4
:10827000397280B200900020FFF734FB0444A4B2AE
:108280005CB9344B1B68DB0790D500BE204602B0BA
:10829000BDE8F081304B0024ECE72F4A2346294605
:1082A000304601F063FFB1E7012C05D1EB88402B8C
:1082B0003FF67CAF294AC5E7032CA7D1EB88698834
:1082C000402B4FEA1122184628BF402011F0FF0131
:1082D0000DD0012B0BD997F848308B4207D10138CC
:1082E0001F4B80B200900020FFF712FB8EE71B4B64
:1082F000F8E7012C8AD169881A4B090A79712BB1E8
:108300000020AFF3008000283FF450AF29463046EC
:1083100001F014FF7AE7012C7FF478AF124A23466C
:1083200090E7012C7FF472AF104A23468AE7012CB4
:10833000ECD0032C7FF46AAF69880D4BC9B2397158
:10834000002B3FF463AF0020AFF300805EE700BF77
:10835000256D0020F0ED00E0246D0020646D00200C
:10836000656D002000000000216D0020206D0020C0
:10837000000000001C6D002037B51A4CA2788A421C
:10838000054660780CD0884224D1174A12B90120E2
:1083900003B030BD15499AB20020AFF30080F6E774
:1083A0009042F2D000229BB211461046009304F195
:1083B0004803FFF7ADFAA178402304F148022846AC
:1083C00001F0FAFA0028E2D1094B1B68DA0706D55A
:1083D00000BEDDE7064B1B68DB0700D500BE0020B2
:1083E000D6E700BF1C6D002000000000246D0020B7
:1083F000F0ED00E070B500F110050446284601F0EC
:108400007CF83F2817D9A178002001F0B5FA90B187
:10841000284601F072F83F28A17807D904F5EC72DC
:108420004023BDE87040002001F0C6BABDE87040AE
:10843000002001F0B1BA70BD70B500F1240405460A
:10844000204601F042F808B9002070BD697800208C
:1084500001F092FA0028F7D005F50676314620465D
:10846000402201F05CF86978044658B10346324670
:10847000002001F0A1FA38B9044B1B68DB07E3D5F3
:1084800000BEE2E701F088FA2046DEE7F0ED00E00A
:1084900037B5154C00254FF416720021204611F017
:1084A00025FE04F1380100950123802204F110001B
:1084B00000F0DAFF0123802204F1B801009504F1F5
:1084C000240000F0D1FF04F59C7101200AF038FB74
:1084D00004F5C471C4E9075001200AF031FBC4E976
:1084E0000C0503B030BD00BF1499002010B5084C36
:1084F00010220021204611F0F9FD04F1100001F0D6
:1085000032F804F12400BDE8104001F02CB800BF9F
:10851000149900202DE9F0474B79012B80469246B3
:1085200003D000252846BDE8F0878B79012BF8D1D0
:10853000CB79002BF5D10C7823460C446278242AA1
:1085400006D15345EDD8227813449BB21444F5E785
:10855000042AE6D16279012AE3D1A279032AE0D183
:10856000E579002DDDD11E4A577891780F43914669
:1085700030D1A27889F8002026789D19ADB2264422
:1085800010E0B378DA0914BF89F8013089F80230B5
:10859000337801371D44ADB21E44FFB233781D4419
:1085A000ADB21E442379BB4203D80D48FFF722FF2A
:1085B000B8E75545F9D87378052BEFD131464046D9
:1085C00001F082F90028DCD1064B1B68DA07A8D538
:1085D00000BEA6E7034B1B68DB07A2D500BEA1E7E0
:1085E00014990020F0ED00E00020704773B51F4D96
:1085F0001C46AB788B4206461DD06B788B422BD144
:108600002846FFF719FF28BB05F1240000F05DFFA5
:1086100000BBFCB114F03F031CD1697801933046D4
:1086200001F0AAF9019B0446A0B169781A463046C8
:1086300001F0C2F917E0A2B205F5EC7105F11000E6
:1086400000F08BFF0A4B13B10020AFF30080074806
:10865000FFF7D0FE012406E0064B1C6814F001046D
:1086600001D000BE0024204602B070BD1499002045
:1086700000000000F0ED00E0034B43F602229A8771
:10868000002283F83E207047A86F002030B4104BC2
:1086900002249A6B83F82C10996883F8304093F881
:1086A0003C408A1A9A6224B942F205059D8783F8F4
:1086B0003E4051B14AB11A7BD20930BC14BF93F885
:1086C0002E1093F82F1001F0B7B930BC704700BFDF
:1086D000A86F002038B5144B144C054673B1607B6D
:1086E000FFF700FA50B942F2077384F83E00A387FF
:1086F00028460121BDE83840FFF7C8BFA26BA36838
:1087000094F82F109B1AB3F5007F28BF4FF4007325
:10871000074A9BB2284601F04FF920B9054B1B6868
:10872000DB0700D500BE38BDE57A0200A86F002047
:10873000A86D0020F0ED00E070B5254CE28AA3683A
:1087400052BA92B286B0054612B1B3FBF2F292B2BF
:10875000A06BD4F81110B0FBF2F61B1AB3F5007F32
:1087600028BF4FF4007309BA009302FB1602194B9D
:10877000607B3144FFF77EF9031E07DAFFF77CFFC9
:1087800001212846FFF782FF06B070BD94F82E1035
:1087900010D1CDE9033307228DF8101003A8194634
:1087A0008DF80C508DF80D2005938DF8113000F0E8
:1087B000F3FFE9E7074A9BB2284601F0FDF80028DD
:1087C000E2D1054B1B68DB07DED500BEDCE700BF4E
:1087D000A86F0020A86D0020F0ED00E0C28A836839
:1087E00052BA92B223B9002A0CBF0020022070476F
:1087F000C17B282904D1017BC90906D10220704719
:108800002A2902D1017BC909F8D122B1934234BF90
:10881000022000207047012070470000044880F8C3
:108820003C1080F83D2080F83E300120704700BFAA
:10883000A86F002002484022002111F057BC00BF61
:10884000A86F002002484022002111F04FBC00BF59
:10885000A86F002073B54B79082B054602D0002085
:1088600002B070BD8B79062BF9D1CB79502BF6D1A4
:10887000162A05D8174B1B68D907F0D500BEEEE7BE
:10888000154C8B7884F82D3004F12E030E7801936B
:1088900004F12F03009302231A46314401F038F803
:1088A00028B90C4B1B68DA07D9D500BED8E70023DE
:1088B00084F8303094F82F101F232246284601F008
:1088C0007BF820B9034B1B68DB0700D500BE1720DF
:1088D000C6E700BFF0ED00E0A86F0020F0B5012969
:1088E00085B00646154615D1137803F07F02022A9B
:1088F00046D16C78012C43D16A88002A40D13C4A89
:10890000AB8892F83070042FDBB2154604D11946BB
:1089100001F092F8012017E092F82E10994215D13B
:10892000022FF7D19368946B1B1B9362032382F889
:1089300030300D23203201F03FF80028EAD12D4BD2
:108940001B68DB0752D500BE05B0F0BD92F82F10B2
:108950009942DFD1002FDDD1019101F05FF801993B
:108960000028D7D1304601F0ADFB0028D2D100233A
:1089700085F830301E4A95F82F101F233046DAE76D
:1089800003F06003202B31D16B78FE2B13D0FF2B2B
:108990002CD16B8853BBE9888AB23ABB144B304662
:1089A00099872946C3E90D2283F8302083F83E20B9
:1089B00001F0C4FBAEE76B88C3B9EB88012B15D17E
:1089C0008DF80F300C4B1BB1FEF7B8FF8DF80F0080
:1089D0009DF80F3053B1013B8DF80F300DF10F02B0
:1089E00001232946304601F0C1FB93E70020ABE7A5
:1089F000A86F0020F0ED00E03D7902002DE9F04184
:108A0000AB4C94F83070012F8EB005461E4600F036
:108A10009F81032F00F00D82002F42D194F82F3058
:108A20008B4201D0012013E01F2E03D12268A14BFD
:108A30009A4210D094F82E100423284684F830303F
:108A400000F0FAFF94F82F10284600F0F5FF002000
:108A50000EB0BDE8F081984B23626368E67BD4F8E2
:108A6000088084F82C70C4E90937012384F8303079
:108A700006F0FD03282BC4E90D872CD12046FFF713
:108A8000ADFE014618B12846FFF700FE09E0B8F137
:108A9000000F00F05781282E40F0AA812846FFF7EA
:108AA0004BFE94F83030022BBCD194F82E1028469F
:108AB00001F008FB0028B5D1A368A26B94F82E1032
:108AC000934240F2DF81207BC00900F0DB81284621
:108AD00000F0B2FFA6E7B8F1000F15D0237BDB0949
:108AE00012D1B8F5007F01D90121CCE7734A1FFAF2
:108AF00088F3284600F060FF0028D2D1704B1B6835
:108B0000D907A4D500BEA3E7252E94F80D8008D878
:108B1000192E14D8032E00F0DD80122E00F08C8068
:108B200066B394F83C30002BDED1A38E634A6549CE
:108B3000607BFEF781FF002880F2FD80D4E71A3EBB
:108B40000B2EEED801A353F826F000BF7B8C020059
:108B5000978B0200238B0200238B0200238B0200E1
:108B6000238B0200238B0200238B0200238B020045
:108B7000F18B0200238B0200B38B02004046FEF70C
:108B80002FFF002840F0DA8094F83C30002BC8D149
:108B9000FFF772FDC5E74C4B002B00F0CF80E17C66
:108BA0004046C1F3400301F001020909FEF74EFF00
:108BB000E7E704AA05A94046FEF730FF059B002B16
:108BC000E2D0BDF81020002ADED03C49013B1BBAA0
:108BD00012BAC1E900320820A368002B84D0834276
:108BE00028BF03466363354A94F82E109BB280E792
:108BF00000230DF10E0205AE04A94046C6E901337B
:108C00000593FEF70BFF049A002ABDD0BDF80E3085
:108C1000002BB9D012BA5BBA082106920222ADF835
:108C20001E308DF817108DF81C2096E80700234B96
:108C300083E807000C20CFE7244B204F0022CDE92A
:108C400005324FF020361F231022202109A8CDE93C
:108C500007668DF8183011F049FA0D960DAB09AA88
:108C600007A9404605AEFEF771FE0FCE0FC70FCE27
:108C70000FC733683B602420AEE7059B03F4000375
:108C800043F003030593124B7BB14046FEF72AFFE6
:108C90009DF8163080F0010060F3C7138DF8163090
:108CA000064B059A1A60042096E70120F0E700BF02
:108CB000A86F00205553424355534253A86D0020DE
:108CC000F0ED00E0B76F00204D7A02000080020254
:108CD000E57A02001222002105A811F007FA94F8A3
:108CE0003C0094F83D1094F83E208DF82010F023BD
:108CF0008DF814304FF0000360F303038DF8163045
:108D00000A238DF81B308DF8212005AE0FCE644F5D
:108D10000FC733683B80634BC3B14FF40072A7F1B8
:108D200010014046AFF3008000239842A38784F8E7
:108D30003E30FFF6F6AE00287FF44EAFA368002B5E
:108D40007FF4D2AE022384F83030AAE61220EBE79B
:108D5000E37BA26B282B05D1636B32449A42A2635A
:108D6000F0D29BE62A2B47D1E08A40BA80B218B1F4
:108D7000A368B3FBF0F080B2D4F81110484FB2FBF7
:108D8000F0FC09BA00FB1C220096607B3B46614464
:108D9000FEF786FE002805DAA36B3344A363FFF7D2
:108DA0006BFCA1E686421DD9361A40B1A16B11FABF
:108DB00080F1A16332463918384611F07DF900215F
:108DC00094F82F300796072205A8CDE905118DF8F4
:108DD00014508DF815208DF818308DF8191000F00A
:108DE000DBFC5EE6A36B1E44636BA6639E42A9D2C6
:108DF0002846FFF76FFC54E6237B3244DB09A2636D
:108E00000CD1A38E264A607B04F10F01FEF714FEFD
:108E1000002803DA39462846FFF738FCD4E90D323A
:108E20009A428FD2204B1B68DB077FF53AAE00BE1B
:108E300037E694F82E308B427FF433AE0D2E7FF45C
:108E400030AEE37B282B09D02A2B14D0174B53B11B
:108E5000607B04F10F01AFF3008004E0144B13B109
:108E6000607BAFF30080002384F83030114A94F81F
:108E70002F101F233DE6104B002BF4D0607BFEF734
:108E800025FEF0E79B1AA362032384F830300B4AD7
:108E90000D23284600F090FD00287FF4C3AD2DE699
:108EA000A86D002000000000F0ED00E000000000D0
:108EB00000000000A86F0020CD7A0200C86F0020DB
:108EC00070B504468178002000F0A8FD054668B919
:108ED000201D00F012FB3F2808D9A17804F5A672E6
:108EE00028464023BDE8704000F066BD70BD00001C
:108EF000F8B505464178002000F090FD064610B117
:108F000000242046F8BD05F5C6774022394605F114
:108F1000180000F004FB04460028F1D003466978ED
:108F20003A46304600F048FD0028EAD1034B1B6862
:108F3000DB07E5D500BE0446E3E700BFF0ED00E047
:108F400037B5144C00254FF4E6720021204611F08D
:108F5000CDF804F12C01009501234022201D00F0E2
:108F600083FA0123402204F16C01009504F11800FA
:108F700000F07AFA04F1AC01012009F0E1FD04F1FE
:108F8000FC01C4E90450012009F0DAFDC4E9090537
:108F900003B030BDE86F002010B5064C204600231A
:108FA00040F8043B00F0DFFA04F11800BDE810407F
:108FB00000F0D9BAE86F00202DE9F34113464A7951
:108FC000FF2A07460D4603D0002002B0BDE8F0811D
:108FD0001E4E7178B2780A43F6D1AA78287832709A
:108FE0002A792C1872B3234401E021780C4461786B
:108FF000052901D09C42F8D3DFF85880CDF80480D1
:1090000008F10103009321460223384600F080FC5A
:1090100028B90F4B1B68DB07D6D500BED5E72B79E7
:10902000B178C3EBC3031C4439B1402308F24B129F
:10903000384600F0C1FC0028EBD0737813B1034828
:10904000FFF756FF601B80B2BFE700BFE86F00204C
:10905000F0ED00E0E96F002008B5114882788A42FF
:1090600004D042788A4211D0002008BD9AB200F59F
:10907000A671043000F071FA0A4B13B10020AFF36F
:1090800000800748FFF71CFF0120EEE7064A1AB1EF
:1090900099B20020AFF300800148FFF729FFF3E702
:1090A000E86F002000000000000000000A4492B2B7
:1090B00091424FEA400001D8824201DB121A92B27B
:1090C0001046704738B50546D41A0846A988A4B298
:1090D0009A423CBF04EB4104A4B2B4B1A14205D210
:1090E000914294BF531A8B189BB26B81994209D954
:1090F000EA882968C2F30E0202FB031110F0CEFFCA
:10910000012038BD5B1A9BB2F0E72046F9E79308CF
:1091100013B501EB8303044699420BD112F003020D
:1091200006D0002301A8019310F0B8FF019B236033
:1091300002B010BD51F8040B2060EDE72DE9F043BB
:1091400085B08588BDF830401E1BB6B2A3423CBF37
:1091500006EB4506B6B280460F4666B3B54206D268
:109160009D4294BF5C1BEC18A4B244812E469642EB
:1091700028BF1646A54222D9B8F806009DF834301B
:10918000D8F80010A5EB0409751BC0F30E022544A6
:109190001FFA89FC15FB02F519FB02F9012B1FFAD6
:1091A00089F9ADB202FB041116D066450AD87243A4
:1091B000384610F073FF304605B0BDE8F083641BFD
:1091C000A4B2D7E74A46384610F068FFD8F8001036
:1091D0002A4607EB0900ECE7664506D816FB02F2C3
:1091E00092B23846FFF793FFE5E729F00304A4B2F3
:1091F000224638460191FFF78AFF19F0030929D06A
:10920000C9F104039BB2AB42019928BF2B4600224F
:109210002144ED1A03A80392ADB201EB0904024602
:10922000A1420DD1D8F8001009F1FF3991440B4447
:1092300099420AD1039B3B60002DBCD02A46D0E75F
:1092400011F801CB00F801CBEAE711F8012B09F87E
:10925000012FEDE7D8F80010EEE77FB5044600696E
:109260000D461E4628B14FF0FF31039209F062FD12
:10927000039A2389618989B2CDE900169BB22946F8
:109280002046FFF75BFF61890246054689B2A08848
:10929000FFF70CFF6081206920B100231A461946B0
:1092A00009F0CAFB284604B070BD13B5930800EB63
:1092B0008303984209D112F0030204D00B68019392
:1092C00001A910F0EBFE02B010BD0C6840F8044B91
:1092D000EFE72DE9FF470646C0680F46154698465A
:1092E00018B14FF0FF3109F025FDF379B6F8089079
:1092F0007189B488DB091FFA89F989B21CD18945C3
:1093000036BFC1EB4401A9EB0101494489B2A14236
:1093100036BF611A002189B28D4228BF0D46002D4B
:1093200055D1F06820B100231A46194609F084FB94
:10933000284604B0BDE8F087A5420BD3B8F1000F72
:1093400005D1F3882D1BC3F30E0303FB0577894674
:109350002546E4E789454FEA440236BF531AA9EB94
:1093600001034B449BB22B449342D8DB621B92B265
:109370002046FFF79BFE8146D1E7ACEB04001FFAC5
:1093800080FCA445F9D2F2883068A4EB0C0A2C1BAF
:10939000C2F30E0364441FFA8AF114FB03F41AFBB0
:1093A00003FAB8F1010F1A461FFA8AFAA4B203FBB6
:1093B0000C0017D08D420CD86A43394610F06EFE6F
:1093C000B0882A464946FFF771FE3081A9E7CC46AE
:1093D000D7E75246394610F061FE3068224607EB67
:1093E0000A01EBE78D4206D815FB03F292B239462B
:1093F000FFF75BFFE4E72AF003081FFA88F842460C
:1094000039460190FFF751FF1AF0030A2AD0CAF13A
:1094100004039BB2A34201983A68039228BF2346F3
:10942000E41A08F1FF380DF10C0CA4B24044514687
:10943000624601391CF801EB00F801EF11F0FF0161
:10944000F7D1306892440AEB0301421E514504D122
:109450001844002CB4D02246C9E71AF801CB02F810
:1094600001CFF3E73068F4E7B2F5004FF8B50446F2
:109470000F4616461D4626D8C06818B14FF0FF317A
:1094800009F058FC206918B14FF0FF3109F052FC87
:109490009DF81830E0682760C5F30E0545EAC3352E
:1094A00000236381A680E580238118B11A461946FE
:1094B00009F0C2FA206920B100231A46194609F0C2
:1094C000BBFA012000E00020F8BD038942898188B1
:1094D0009BB292B2934236BFC2EB41029B1A9B18D9
:1094E00098B2884228BF084670470289438992B2E1
:1094F0009BB2D31A584258417047828803894089E9
:109500009BB280B2834236BFC0EB4200181AC0182B
:1095100080B2824286BF101A80B2002070470023BA
:10952000FFF79BBE38B5044600690D4618B14FF0F1
:10953000FF3109F0FFFB2289638929469BB292B271
:109540002046FFF7BFFD0546206920B100231A46DB
:10955000194609F071FA284638BD12B10023FFF709
:10956000B8BE1046704710B50446C06818B14FF039
:10957000FF3109F0DFFB206918B14FF0FF3109F02E
:10958000D9FBE06800236381238118B11A4619468C
:1095900009F052FA206920B100231A46194609F051
:1095A0004BFA012010BD38B50446C0680D4618B10D
:1095B0004FF0FF3109F0BEFB206918B14FF0FF31C9
:1095C00009F0B8FBE379E06865F3C713E37120B1F4
:1095D00000231A46194609F02FFA206920B100230A
:1095E0001A46194609F028FA012038BD0B4B63B121
:1095F0000B4B1B78834206D90A4B1B6800EB4000DB
:1096000003EBC0007047C01AC0B2042803D8064B51
:1096100000EB4000F4E70020704700BF00000000AE
:10962000B8710020B471002054D7030070B5134EF8
:10963000054600242046FFF7D9FF28B9104B1B68C8
:10964000DB0700D500BE70BD4368284698473378D5
:109650000134E4B20433A342ECDA37220021094892
:1096600010F044FD1022FF21074810F03FFDBDE837
:10967000704006481222FF2110F038BDB87100205A
:10968000F0ED00E00C7200200F7200201F7200202D
:1096900037B50C4605460868019200F0A7FD23681F
:1096A000019A0121284603B0BDE830401847000068
:1096B000024B5878003818BF012070470C72002008
:1096C000024B1878C0F38000704700BF0C72002076
:1096D000024B1878FF3818BF0120704758610020EE
:1096E000F7B5234D2B78FF2B04463DD137220021BF
:1096F000204810F0FBFC2049012009F021FA1F4B03
:10970000186030B91E4B1B68DB072FD4002003B054
:10971000F0BD1C490B46002233F8080B00924A6842
:10972000498809F04DF9184B18600028EAD0174B0A
:1097300023B11748AFF30080164B1860144F002672
:109740003046FFF753FF0028DCD0036898473B788A
:109750000136F6B20433B342F2DA20462C7000F040
:10976000D4FE204600F0D2FE0120D0E700BECEE7B6
:10977000586100200C720020BC710020447200204F
:10978000F0ED00E0006100204872002000000000C1
:10979000B8710020B4710020F0B54378023B85B069
:1097A00004460D46032B22D8DFE803F00261192D91
:1097B000394A13786FF30003137013786FF3410382
:1097C000137000235370117863F382011170334AD0
:1097D00010688DB92B464FF0FF32214643E02E4BE7
:1097E0001A78D00741D51A7842F004021A702B4B30
:1097F0001868002DEED0002301AA2146019309F03C
:10980000C6F9019B3CE0244A1378D9072DD513787B
:109810006FF382031370EAE7FFF7E8FE20B14369B4
:1098200013B161682078984701363B78F0B2043371
:109830008342F1DA184A13785B0716D513786FF371
:109840008203137022780023CDE901338DF80420C0
:1098500005228DF80520114A0393106855B92B464F
:109860004FF0FF3201A909F0E7F805B0F0BD0C4F49
:109870000026DAE76A4601A9009309F088F9009BFF
:10988000002BF2D0074B4FF080525A6040BFBFF31D
:109890004F8FBFF36F8FE8E70C72002048720020F3
:1098A000B871002000ED00E01FB50023CDE90201F2
:1098B00001931146082301A88DF80530FFF76CFFCE
:1098C00005B05DF804FB000038B58B7803F07F032A
:1098D000082B0C4606D90B4B1B68DB0700D500BED6
:1098E000002038BD084B1D78084B2046997801F0C0
:1098F00043FB0028EFD021462846BDE8384000F061
:109900001DBE00BFF0ED00E0586100200C72002089
:109910002DE9F047DDE9085681460C4690469A4607
:109920000027B84501DC01200CE06378052B04D149
:10993000E37803F00303534508D00E4B1B68DA07A6
:1099400002D40020BDE8F08700BEFAE72146484671
:10995000FFF7BAFF28B9074B1B68DB07F1D500BE3C
:10996000F0E7A378DA0914BF33702B70237801373E
:109970001C44D6E7F0ED00E0CB0901F07F00253371
:1099800003EB4003024A03481168184401F0ACBAE3
:10999000447200200C720020CB0901F07F002533B7
:1099A00003EB4003024A03481168184401F0C5BAAA
:1099B000447200200C720020154838B501F07F0574
:1099C00000EB450000EBD11420346079C00707D5C7
:1099D000104B1B68DA0701D4002038BD00BEFBE73E
:1099E000607940F0010060710B48007800F07AFE69
:1099F0000028F2D1637960F300036371637960F347
:109A000082036371034B1B68DB07E5D500BEE4E707
:109A10000C720020F0ED00E058610020054B01F0D1
:109A20007F0203EB420303EBD11191F8250000F014
:109A3000010070470C72002010B50C4B01F07F0242
:109A400003EB420303EBD114203463799B070BD45F
:109A5000074B187800F0BEFE637943F00203637190
:109A6000637943F00103637110BD00BF0C720020E5
:109A70005861002010B50C4B01F07F0203EB42034C
:109A800003EBD114203463799B070BD5074B18786F
:109A900000F0C4FE63796FF34103637163796FF380
:109AA0000003637110BD00BF0C72002058610020DC
:109AB0002DE9F04F984B1B78FF2B8BB0834600F0BD
:109AC000B4824FF47A72002380024FEA9B5110F067
:109AD000B5F8012838BF0120904E0490904BBBF19F
:109AE000FF3F18681BD0049BBBF1000F14BF1A4640
:109AF000002207A909F0A4F8002800F096829DF83A
:109B00001D30013B072B00F2D282DFE813F00A0080
:109B10001B00D0029902BD0227006702C9025A4603
:109B2000E7E79DF81C00FFF781FD00F057FB7D4B38
:109B30009DF820209A707A4B186809F091F9002856
:109B4000CCD172E29DF81C00FFF770FD00F046FBDF
:109B5000754B002BEFD0AFF30080ECE7714C9DF814
:109B60001C50237843F00103237094F825306FF3E1
:109B7000000384F8253094F825306FF3820384F8CD
:109B8000253094F826306FF3000384F8263094F8DB
:109B900026306FF3820384F82630002000F026FB85
:109BA0009DF8207007F06009B9F1600F0ED133689D
:109BB000DC0700D500BE9DF81C00002100F00AFE65
:109BC0009DF81C00802100F005FEB4E7B9F1400FBC
:109BD0000CD156480028EED000F008FB08AA01215D
:109BE0002846FDF7DDFF0028A5D1E4E707F01F07B1
:109BF000012F00F08081022F00F0A981002FD6D123
:109C0000B9F1200F10D19DF824300F2BD3D81C446C
:109C1000E078FFF7EBFC0028CDD008AA00F10C019A
:109C20002846FFF735FDDEE7B9F1000FBFD19DF8FB
:109C30002130092BBBD801A252F823F0E19E02008B
:109C4000CF9E0200AF9B0200BB9E0200AF9B0200B2
:109C5000659C0200FB9D0200AF9B02007F9C0200FE
:109C6000959C020008A800F0C7FA9DF8221028462B
:109C700000F052FC237843F0020323705BE7637823
:109C80008DF81A3001230DF11A0208A9284600F0B8
:109C90006DFA50E79DF822300193019A63789A4259
:109CA00032D063783BB1284600F0D2FCA778284632
:109CB000FFF7BCFCA770019B33B3581EC0B2FDF781
:109CC000FBFD10B14378022B05D03368DB077FF52D
:109CD0006EAF00BE6BE7C379C3F38012C3F34013CA
:109CE0001B0143EA4213227822F03002134323700F
:109CF0004388C31800F109070293029BBB4219D89D
:109D00000B4B0BB1AFF30080019B637008A9284691
:109D100000F014FA0FE700BF58610020F0ED00E0FA
:109D2000487200200C72002000000000A17B02009D
:109D3000000000007B780B2B03BF3A78FB78BF183C
:109D400001237A78042AC0D1029AA2EB070A1FFAEB
:109D50008AF203924FF0000AC14A12785FFA8AF839
:109D600004324245B1DB40460593FFF73FFC059BBB
:109D700081460028A9D0039A05933946D9F80830BE
:109D8000284698470828059B024633D90399814203
:109D900030D3012B09D1D9F80810B248814208BF4D
:109DA0000223B148814208BF02234FF0000E5FFA40
:109DB0008EF18B420DD843463946AC48039201F0F0
:109DC0000BF9A74B039A1B7804339845174494DD8D
:109DD0007BE797F802C0A648614450FA81F10EF182
:109DE000010E91F803C0BCF1FF0F7FF46EAF81F854
:109DF0000380DCE70AF1010AAEE7BDF82200030A9E
:109E00005A1EC0B20E2A3FF6D6AE01A151F822F07A
:109E10004D9E0200779E0200999E0200B79B0200B1
:109E2000B79B0200AD9E0200779E0200B79B020026
:109E3000B79B0200B79B0200B79B0200B79B0200D2
:109E4000B79B0200B79B02005F9E0200FDF730FD4A
:109E50001223024608A9284600F088F9C3E6854B7C
:109E6000002B3FF4A8AEFDF797FE024600283FF412
:109E70009EAE4388EEE7022B07D1FDF71DFD0028BB
:109E80003FF495AE43880246E4E77B4B002B3FF45A
:109E900092AEAFF30080F2E7BDF82410FDF712FD9B
:109EA000024600283FF487AE0378D3E7734B002BBC
:109EB0003FF481AEAFF30080F2E7BDF82230012B12
:109EC0007FF479AE237843F0080323701EE7BDF8D2
:109ED0002230012B7FF46FAE23786FF3C303F4E7D6
:109EE0002378C3F340129B0803F002031343ADF839
:109EF0001A300223C7E69DF824300F2B3FF65BAEE5
:109F00001C44E078FFF772FB00283FF454AE00F1E8
:109F10000C0108AA2846FFF7BBFB00287FF40BAE14
:109F20009DF8203013F060047FF445AE9DF8213099
:109F30000A3B012B3FF63FAE00F058F99DF8213067
:109F40000A2B7FF4E3AE8DF81A403B469BE69DF862
:109F5000241001F07F02082A3FF629AE04EB4202EA
:109F600002EBD112D07CFFF741FB8046B9F1000F24
:109F700006D000283FF41FAE08AA00F10C014FE6FE
:109F80009DF8213003F0FD00012809D0002B7FF45B
:109F90000EAE92F82530C3F34003ADF81A30D4E783
:109FA000BDF8222022B9012B284614D1FFF762FD0B
:109FB000B8F1000F3FF4BFAD08AA08F10C01284624
:109FC000FFF766FB002000F011F994F82630DF0758
:109FD0003FF5B1AD9AE6FFF72FFDE9E79DF82010B8
:109FE000234B01F07F0403EB440303EBD11393F8FD
:109FF00025006FF3000083F8250093F825006FF328
:10A00000820083F825003CB9099B9DF821209DF82A
:10A010001C0000F0FFF88EE5D87CFFF7E7FA38B9AE
:10A02000174B1B68D80700D500BE0BB0BDE8F08FFA
:10A030000469099B9DF821209DF81C00A0477AE542
:10A040000B4B1A78D1077FF576AD0E4A002A3FF404
:10A0500072AD1878C0F3C000AFF300806BE500BFAD
:10A06000B8710020657E0200158502001F72002075
:10A070000C720020997B020000000000000000002C
:10A08000F0ED00E0000000000C4B1B78DA077FF5D4
:10A0900052AD0B4B002B3FF44EADAFF300804AE5C1
:10A0A000089B002B3FF447AD0998984743E5336878
:10A0B000DB077FF540AD00BE3DE500BF0C72002020
:10A0C00000000000054B01F07F0203EB420303EBAD
:10A0D000D11191F82500C0F3400070470C720020A8
:10A0E00037B514490446CA89888991F90050831A02
:10A0F0009BB2402B28BF4023002D10DA904214D091
:10A100001A4689680C4801930FF0C8FF0A4A019B60
:10A110008021204603B0BDE83040FFF74DBC90429F
:10A120004FF0000103D10022F3E78021FBE7024A50
:10A13000EFE700BF0C7300202073002030B40A4CFE
:10A1400005460A4608684968234603C392F9002079
:10A1500000239A42C4E9023328461A4630BCACBFF9
:10A1600080211946FFF728BC0C730020F8B5194E62
:10A170000C46054608684968B260374603C70021A7
:10A18000F181E1888B4228BF0B46B38179B143B19D
:10A190003AB9114B1B68DA0701D40020F8BD00BEA4
:10A1A000FBE72846FFF79CFF68B10120F6E794F92A
:10A1B0000030002B0A460B462846ACBF8021002108
:10A1C000FFF7FAFBF0E7044B1B68DB07E5D500BEA1
:10A1D000E4E700BF0C730020F0ED00E00248142219
:10A1E00000210FF083BF00BF0C730020014B1861EA
:10A1F000704700BF0C73002010B50246044C006885
:10A200005168234603C30023C4E9023310BD00BFD5
:10A210000C73002070B52F4C1E462378C909B1EB92
:10A22000D31F054616D03EB12B4B1B68DA0701D46D
:10A23000002070BD00BEFBE7284B13B12146AFF3F1
:10A24000008023690BB90120F3E7224A0321284645
:10A250009847F8E794F90030002B06DBA068002847
:10A26000E6D01F4932460FF019FFA268E389324455
:10A270003344A260E2889BB29A42E38101D03F2E30
:10A2800024D823699BB994F90030002B4FF00003C8
:10A290001A46ACBF802119462846FFF78DFB0028DF
:10A2A000D1D10D4B1B68DB07C2D500BEC1E702212F
:10A2B000084A2846984701460028E4D1284600F07D
:10A2C00089FA8021284600F085FABCE72846FFF786
:10A2D00007FFE4E70C730020F0ED00E00000000051
:10A2E00020730020064B1868043B1B68082B04D120
:10A2F00003288CBF0020012070470020704700BF5A
:10A300003401001042DF704743DF704744DF70477D
:10A3100012DF704743F2040307B51A68094B9A42EB
:10A320004FF000000AD18DF807000DF10700FFF78C
:10A33000EFFF9DF80700003818BF012003B05DF85B
:10A3400004FB00BFDBE5B15101230360BFF36F8F56
:10A35000BFF34F8F074B984202D0043B984207D17E
:10A36000BFF35B8F044B002283F82021BFF35B8F88
:10A37000704700BF507002406073002010B40E4B55
:10A38000BFF35B8F01464FF00104D3E84F2FC3E8C2
:10A390004C4FBCF1000FF8D1BFF35B8F12F0FF0FF1
:10A3A00005D006485DF8044B0122FFF77DBA5DF841
:10A3B000044BFFF7C9BF00BF807400207DA30200DB
:10A3C0000D4B03EB4013D98A9A8A521A198B92B219
:10A3D0008A4228BF0A4619691423434303F1804384
:10A3E00003F51C33C3F80016C3F80426034B03EB34
:10A3F0008000FFF7C3BF00BF6073002004700240FD
:10A40000F0B42C4ABFF35B8F02F590734FF0010458
:10A41000D3E84F1FC3E8454F002DF9D1BFF35B8F41
:10A4200011F0FF0F14460BD0234B5A68C2F30802F9
:10A43000003A0146F0BC214818BF0122FFF734BAA8
:10A4400008281F491AD1D1F8C034D80308D5BFF362
:10A450005B8F002384F82031BFF35B8FF0BC704723
:10A4600092F80B010028F2D0D2F800211548C1F86B
:10A47000A027C1F8A437F0BCFFF766BF02EB401578
:10A4800000F59473460151F82340EF88AB88DB1B3D
:10A490009BB2A4B2A34228BF23469459142202FBC4
:10A4A0000011C1F80047C1F80437074B03EB8000E7
:10A4B000E1E700BF6073002000ED00E0CDA40200E2
:10A4C000007002404870024028700240C0B2FFF79E
:10A4D00097BF07B5FFF71EFF58B1002301A80193EE
:10A4E000FFF714FF0198003818BF012003B05DF892
:10A4F00004FB4FF08043D3F80C24D3F80C0410F481
:10A50000803018BF02F00100F0E77047014B802255
:10A510005A60704700E100E0074BD3F80014D3F80D
:10A5200000240A43C3F800240022C3F858214FF442
:10A530008002C3F8042370470070024070B58A7827
:10A540008E883F4CC97802F07F03580000EBD21090
:10A5500004EB001001F00301C6F30A0601294FEADB
:10A56000D215068129D00120364900FA03F4D5B965
:10A5700003F10C06B040C1F80403D1F8140503F54B
:10A5800094732043C1F8140541F823502D4BC3F8B0
:10A59000182542F48072C3F80C25BFF36F8FBFF308
:10A5A0004F8F012012E002339840C1F80403D1F824
:10A5B00010352343C1F81035E8E7082B07D0224BAC
:10A5C000186810F0010001D000BE002070BD1D4BC6
:10A5D000DDB9B4F8181111B18021C3F81C150021A0
:10A5E000C3F85011D3F8001311F4001108BFC3F8D9
:10A5F0005411144B4FF44011C3F80413D3F814153D
:10A6000041F48071C3F81415C0E70021C3F82C1180
:10A61000B4F8081111B18021C3F81C15094BD3F807
:10A62000001311F4001108BFC3F854110749C3F80F
:10A630000413D3F8101541F48071C3F81015A5E781
:10A640006073002000700240F0ED00E00008200080
:10A650001F4B80222DE9F041C3F88420BFF34F8FB8
:10A66000BFF36F8F01241B4DDFF87480274604F180
:10A670000C03A21C07FA02F207FA03F31343C5F80E
:10A680000833A30003F1804303F51C3300265E600A
:10A6900008EB44109E622022314601340FF026FD63
:10A6A000082CE4D10C4BC5F808332022C5F81C65F2
:10A6B00031466E620948AE640FF018FDC5F8147596
:10A6C000C5F81075024B80225A60BDE8F08100BFCA
:10A6D00000E100E0007002400008300060740020DB
:10A6E000607300202DE9FF4101F07F00334F0E46DB
:10A6F0001C46430003EBD6134FEA031807EB031382
:10A70000C90993F80BC03D460CF0FF0EBCF1000FD9
:10A710000AD02B4B1B6813F0010301D000BE0023AD
:10A72000184604B0BDE8F08147F808209C80A3F8E3
:10A7300006E008BB04BB234BD3F88034C3F3C0133B
:10A740008B4219D02048FFF719FE204B596803941B
:10A75000C1F3080100394FF4E06318BF012101A8DB
:10A76000CDE90144ADF804308DF808608DF809405A
:10A77000FFF712F80123D3E70124D9B905EB401202
:10A78000D47220B91248FFF7F9FD2346C8E7BFF39A
:10A790006F8FBFF34F8F957A05F0FF03002DF4D034
:10A7A000D47A04F0FF05002CBAD09172FFF728FE8E
:10A7B0002B46B5E7FFF704FEE7E700BF6073002014
:10A7C000F0ED00E0007002405070024000ED00E04B
:10A7D0004C70024011F07F0008B507D10D4B0122EB
:10A7E0005A65BFF36F8FBFF34F8F08BD0828F8D0AD
:10A7F000084B41F48072C909C3F81825F1D1064B02
:10A8000003EB40139A7A002AEBD09972FFF7F8FD18
:10A81000E7E700BF007002406073002011F0770F7F
:10A8200012D00A4B41F48072C3F80C15C3F80C2502
:10A83000CA09C3F8181504BF01F5947143F8212023
:10A84000BFF36F8FBFF34F8F704700BF00700240A0
:10A8500008B5184B01220021C3F81425C3F81025B0
:10A860000A468B0003F1804303F51C3301310829AC
:10A870005A609A62F5D10F4B5A629A64C3F8582114
:10A88000D3F80014D3F800240A43C3F80024D3F803
:10A890000023C3F80823084AC3F80423074B4FF4E6
:10A8A0009272002118460FF021FC4022028302819F
:10A8B00008BD00BF007002400514C0016073002095
:10A8C0002DE9F04FC34BC44AD3F80013002385B0E1
:10A8D0001C4601201D4621FA03F6F6070BD552F857
:10A8E000236046B100FA03F6344342F82350BFF325
:10A8F0006F8FBFF34F8F0133192BECD1E7070FD5C3
:10A90000FFF7A6FF00234FF48072012101A8CDE9D3
:10A9100001330393ADF804208DF80830FEF73CFFB7
:10A9200014F4006FAD4D08D0AA4BD3F8A8369BB2F3
:10A93000A5F81631012385F81C31A60231D5A54EA4
:10A94000D6F8143513F4807303D00820FFF758FDB0
:10A950000123D6F81025D00540F15B8195F81C3114
:10A960009BB1B5F8163100229BB2CDE9012285F8E2
:10A970001C2103934FF4E0628823012101A8ADF864
:10A980000420ADF80830FEF707FF0023CDE90133BE
:10A99000039301214FF4407301A8ADF80430FEF792
:10A9A000FBFE610236D58B4BD3F8006406F4E062FF
:10A9B000C3F80024F2050DD50121C3F82C1500239E
:10A9C000CDE90133039301A84FF48063ADF804305F
:10A9D000FEF7E2FE77050FD57E4B0122C3F808256E
:10A9E0009A65D3F8002312F4001208BFC3F854216B
:10A9F0004FF40012C3F80423B0050BD50023CDE9B2
:10AA00000133039301214FF4A06301A8ADF8043092
:10AA1000FEF7C2FE21023BD56E4BD3F880E4D3F89B
:10AA20008424D3F88814D3F88C74D3F89064D3F8C2
:10AA300094045FFA81FCD3F89814D3F89C341EF088
:10AA40007F0F5FFA8EF8D2B2FFB2F6B2C0B2C9B2CF
:10AA5000DBB201D1052A1BD04FF0000EADF806E0A5
:10AA60008DF80D004FF4C06E8DF80E1001A8012175
:10AA7000ADF804E08DF808808DF809208DF80AC043
:10AA80008DF80B708DF80C608DF80F30FEF784FE9A
:10AA9000534B23406BB1BFF35B8F95F82031BFF36D
:10AAA0005B8F002B40F0BD804E4B1B68DA0700D552
:10AAB00000BEDFF82881DFF81C91DFF830B147468F
:10AAC00000264FF0140A06F10C0324FA03F3DB0707
:10AAD000F1B224D50AFB06933A68D3F8083705EBA0
:10AAE000461C12FA83F23A60BCF806E098B273444E
:10AAF0009BB2082E4FEA4612ACF8063000F099805F
:10AB00003B89834240F09580BCF80630B8889BB200
:10AB1000984240F28E8011B95846FFF72FFC01365B
:10AB2000092E07F12007CED12F4B2340002B00F038
:10AB30008880284BD3F86C74C3F86C74BFF36F8FA4
:10AB4000BFF34F8F14F4806408D0D3F88044D3F857
:10AB500080341906C4F3C01440F18C804FF0000912
:10AB6000DFF870A000264FF0140B27FA06F3DA077F
:10AB7000F0B201D4D6B9CCB10BFB06A3D8F81020A3
:10AB8000D3F8083652FA83F2C8F8102005EB4612C3
:10AB9000D18A89B251FA83F39BB2D382D38AB8F8AF
:10ABA00014109BB2994268D9FFF70AFC0136082EAF
:10ABB00008F12008D9D10024012604F1100327FA56
:10ABC00003F3DB07E0B213D4FCB9B9F1000F1CD0DA
:10ABD0000EE000BF00700240007102406073002070
:10ABE000FCFB1F00F0ED00E0000400014C7002408F
:10ABF00005EB44116301CA7A002A53D0CA888988B8
:10AC000092B291424ED9FFF7FBFB0134082CD4D10C
:10AC100017E0002B7FF4B9AE4FF40013C6F80833E9
:10AC2000B3E60023BFF35B8F85F82031BFF35B8F62
:10AC30003FE72A44D37A3BB91C4B1B68D80700D5A1
:10AC400000BE05B0BDE8F08FD388BB800023D3726F
:10AC5000D2884FF4E060CDE9013392B2ADF8040040
:10AC60008DF8081001A8012103928DF80930FEF734
:10AC700093FD54E74FF0010972E7D28A00234FF4A5
:10AC8000E06160F07F00CDE9013392B2ADF80410CD
:10AC90008DF80800012101A803928DF80930FEF714
:10ACA0007BFD83E72B449E72AFE700BFF0ED00E031
:10ACB00001287FB5044600F0B880022853D0002850
:10ACC00042D1764BD3F80025002A3DD14FF48002C3
:10ACD000C3F808234FF40062C3F80024BFF36F8F5A
:10ACE000BFF34F8F6E4B1B68082B10D16D4B1B6849
:10ACF000032B0CD86C4AD35C4BB16C4B6C4A186874
:10AD0000032118BB49F27530186011601860FFF715
:10AD1000E9FA48B1654B674A1868C021C0B949F2E1
:10AD200075301860116018605C4B0124C3F8004551
:10AD3000BFF36F8FBFF34F8FFFF7CBFB20B9FFF748
:10AD4000E9FA38B1FFF7DEFA04B070BD1160DEE752
:10AD50001160E9E7584B18601B680193019B4FF0A5
:10AD600080431C60F0E74D4CD4F804351BB1FFF76D
:10AD7000B0FB0028E8D1D4F800341B05FBD54FF414
:10AD80000063C4F80034BFF36F8FBFF34F8FFFF73A
:10AD9000A9FA48B1454B474A186800283FD149F203
:10ADA00075311960106019603D4B1B68082B0FD17D
:10ADB0003C4B1B68032B0BD83B4AD35C43B13B4B4A
:10ADC0003B4A186870BB49F2753119601060196010
:10ADD000FFF788FA48B1394B40F2E3721A6040221B
:10ADE0005A60BFF36F8FBFF34F8F2C4C344E8025CA
:10ADF0000123C4F81C55C4F80433C6F88451FEF787
:10AE000067FC00B17560FFF764FB0028FBD00123ED
:10AE1000C4F80435BFF36F8FBFF34F8F94E700235F
:10AE20001360C1E700231360D2E71C4BD3F8002561
:10AE3000002A89D00022C3F80425BFF36F8FBFF327
:10AE40004F8F1F498020C1F88400BFF34F8FBFF39D
:10AE50006F8FD3F80013C3F80813C3F80025BFF3AE
:10AE60006F8FBFF34F8FFFF755FAA0B1FFF74CFA82
:10AE7000144B5968C1F3080100230039CDE90133AF
:10AE8000039318BF01214FF4007301A8ADF80430FB
:10AE9000FEF782FC58E70C4B1C60E9E700700240AB
:10AEA0003001001034010010CCD7030000EC064044
:10AEB00014ED064014EC064000010040007802400A
:10AEC00000E100E000ED00E00400004008B50020D3
:10AED000FEF706FC20B9034B1B68DB0700D500BE5C
:10AEE00008BD00BFF0ED00E0F8B5047814F00104EF
:10AEF00005460E461FD103785A07C3F3800716D4C0
:10AF00004FF0FF31304607F015FF2C7814F00104A4
:10AF10000FD12B785B0704D42B7843F004032B70FC
:10AF2000012400231A461946304607F085FD2046C5
:10AF3000F8BD3C46F5E70024F9E770B504460D4638
:10AF400028464FF0FF3107F0F5FE2378C3F3800663
:10AF50005B0708D5237813F0010203BF237862F35F
:10AF600082032370002600231A461946284607F05C
:10AF700063FD304670BD00008388C07800F0030098
:10AF80000228C3F30A0313D003281BD001280DD1D4
:10AF9000022940F2FF3208BF4FF480629A420DD27C
:10AFA0000C4B186810F0010008D000BE002070475C
:10AFB000022904D1B3F5007FF2D101207047402B64
:10AFC000FBD9EDE702290CBF4FF4806240229A4280
:10AFD000F3D2E5E7F0ED00E030B50A44914200D34A
:10AFE00030BD4C78052C06D18C7804F07F0500EB41
:10AFF0004505E4092B550C782144EFE7F8B50546E3
:10B000000E4617460024BC4207D02B68315D1B68F2
:10B010002846984708B10134F5E72046F8BD704747
:10B02000203007F086BB437F13B513B9002002B070
:10B0300010BD00F168042046019107F088FB00284C
:10B04000F4D12046019907F057FB0120EFE72030AB
:10B0500007F061BB203007F072BB00002DE9F04122
:10B060001D464FF000084FF47A73C0E901830F4B7F
:10B07000044640F8203B16460F4607F032FB04F129
:10B08000680007F02EFB0A4B9DF81820257653F830
:10B09000222062769DF81C2084F81D8053F822300F
:10B0A000A376C4E904762046BDE8F081D8D7030032
:10B0B000F4E703000123C376837E1F2B86BF03F0D2
:10B0C0001F03274A4FF0A04203F5E07340F20C61E2
:10B0D00010B542F82310437E1F2B86BF03F01F03D9
:10B0E0001F4A4FF0A04203F5E07340F20C6142F8B2
:10B0F0002310036990F918104FF0CC72C3F824257F
:10B100000622C3F80025827EC3F80825427EC3F8D4
:10B110000C250029037E1BDB01224C0903F01F03D1
:10B1200002FA03F360340F4A42F824300A446023E1
:10B1300082F8003390F91830002B08DB01225909FE
:10B1400003F01F0302FA03F3064A42F8213010BD50
:10B15000054A03F00F031A4460231376EAE700BFA1
:10B160000003005000E100E0FCEC00E0C37E93B17E
:10B1700003690022C3F80025094A91420CD9094A03
:10B18000914294BF4FF080614FF0C8610622C3F82E
:10B190002415C3F8002570474FF0CC71F6E700BFC7
:10B1A000A086010090D003002DE9F84306468846AA
:10B1B0001F461546002A44D000F12009484607F0F2
:10B1C000A6FA34690123C4F888852362C4F834954B
:10B1D000C4F838552360D4F84C311BB9D4F8243165
:10B1E000002BF8D00023C4F84C31D4F85C311BB9E3
:10B1F000D4F82431002BF8D00023C4F85C310123AB
:10B200005FB9D4F8242142B9E361D4F84831002B66
:10B21000FBD00023C4F8483107E06361D4F804315F
:10B22000002BFBD00023C4F80431D4F8243113B12F
:10B230000023C4F82431D4F83C053066C0B2BDE820
:10B24000F8831046FBE70123FFF7AEBF10B50446B5
:10B2500080F8B010683007F05AFA0123637710BD08
:10B26000F8B503690022012700F168060D4690F841
:10B27000B01042770446C3F888153046C3F804215D
:10B280001F62C3F8446507F054FA2369C3F8480500
:10B290009F60D3F850211AB9D3F82421002AF8D09E
:10B2A0000022C3F85021304607F043FA236930B139
:10B2B000D3F860211AB9D3F82421002AF8D000224B
:10B2C000C3F8602101225DB9D3F8241141B9DA61D4
:10B2D000D3F84821002AFBD00022C3F8482107E018
:10B2E0005A61D3F80421002AFBD00022C3F80421BC
:10B2F000D3F8240160B10022C3F82421D3F8C40498
:10B30000C3F8C404022803D004280CBF032004207F
:10B31000F8BD0121FFF7A4BF4369D3F8642173B5D9
:10B32000044682B10022012500F12006C3F8642101
:10B330000577304607F0EBF963694022C3F83465BE
:10B34000C3F838251D636369D3F86821DAB1002595
:10B35000C3F868514FF4807304F16800A38301902F
:10B3600007F0D5F9D4F8B43001980BB1984701989B
:10B3700063696577C3F8440507F0DBF96369012267
:10B38000C3F848055A636369D3F804215AB100220F
:10B39000C3F80421227F32B1D3F83C05D4F8B83089
:10B3A000206603B198476369D3F8242142B1002293
:10B3B000C3F82421D3F8D024C3F8D02401225A6141
:10B3C00002B070BD0148FFF7A7BF00BF8474002022
:10B3D00007B508230B22CDE90032044A04480323B1
:10B3E0001146FFF73BFE03B05DF804FB0030004060
:10B3F0008474002072DF704773DF704777DF704717
:10B400000022C2770270704770B51C46C37F0E469B
:10B410001146E2181D2A05460EDC1844621CEA5447
:10B420000230224600F8016C0EF038FEEA7F02344A
:10B430001444EC77012070BD0020FCE7044A026050
:10B440004A6842608A688260CA68C260704700BF0A
:10B4500044D803002DE9F041002688B007460D4688
:10B4600001EB02183446454518D0284601F0EAFCA5
:10B47000102803D080280AD01035F4E708AA631CEE
:10B4800002EB4404AA8824F8202CDCB2F4E71EB1B5
:10B49000002008B0BDE8F081AE68EDE714B966B9E8
:10B4A0000120F6E7630003F0FE036A4603213846F5
:10B4B000FFF7AAFF0028F2D1EAE71023324607215E
:10B4C0003846FFF7A1FFE4E70122FFF7C3BF1FB52E
:10B4D000044608316846FFF7B1FF69462046FFF78A
:10B4E000F3FF0446684601F086FC204604B010BD18
:10B4F00030B589B00446202269460C4801F060FF4F
:10B500000346E07FC2181D2AC5BFC0F11D030825F0
:10B510000925DBB26A4629462046FFF775FF18B1B8
:10B52000A5F109035842584109B030BD58750020B3
:10B5300013B50446064801F07BFF01238DF8070090
:10B540000DF107020A212046FFF75EFF02B010BD91
:10B550005875002007B501238DF807100DF107027B
:10B560001946FFF751FF03B05DF804FB08B5034629
:10B57000FFF746FF06490022C3E908120549996210
:10B58000A1F55601C3E90B12C3E90D22184608BD07
:10B59000FF0101002000F400C1857047018542854C
:10B5A0008185704780F822107047000070B504460E
:10B5B00088B00E4615460021182202A80EF096FD0E
:10B5C00094F821308DF8083005EB8503204A049665
:10B5D00003EB83039B00ADF814301368DB0709D439
:10B5E0001C4BE17F99801C499960C97F1C6099813F
:10B5F00001231360174902AA04F12000FFF7FAFEA5
:10B6000010B1002008B070BD94F8201013480191CB
:10B6100001F00EFF019902460120FFF7EFFE00281E
:10B62000EFD194F820000121FFF7E6FE0028E8D1D1
:10B630000A4801F063FF628EA68595424FF0010033
:10B6400094BF521B921A84F823006286DAE700BF87
:10B650004075002044750020D47B002058750020E0
:10B6600010B50446418601860548FA2101F0E6FE40
:10B67000E28D218D2046BDE81040FFF797BF00BF47
:10B680005875002030B50B888D88112B85B0044685
:10B690000FD0262B2AD0102B09D1CB7B012B06D122
:10B6A000426AAB4013434362002380F8233005B065
:10B6B00030BD436AEB40DB07F9D5224801F04EF874
:10B6C0000028F4D1012202FA05F3626A22EA030299
:10B6D00094F823306262002BE9D194F82230002BD9
:10B6E000E5D0218E2046FFF7BBFFE0E70B7A012B68
:10B6F000DDD1002380F823304FF4FA71114801F0B6
:10B700009DFE238E43B9A36B03B198470022618D40
:10B710002046FFF74BFFCAE7658E25B1A36B03B147
:10B720009847628EF3E7074801F000FF626B002A3A
:10B73000BDD0009503AB29462846039509F0F8F9DA
:10B74000B5E700BF5875002075DF70474FF0101146
:10B750004FF44802C0E900120022C0E902227047FB
:10B76000014800F043BE00BF487C002010B50948E6
:10B7700001F0ACFE044608B9002010BD00F0CCFC7E
:10B780000028F9D0204600F0D0FC831E58425841D2
:10B79000F3E700BF5875002070B5002506462C461B
:10B7A000A9B23046FFF7E2FF08B10134E4B2013537
:10B7B000142DF5D1204670BD70B58E8819480C4601
:10B7C00094B0314601F082FE23881A2B05460ED034
:10B7D0001F2B19D0102B08D1694600F0EEFC20B1C8
:10B7E00011486A46314601F0E9F914B070BD00F025
:10B7F00095FC0028F9D0284600F092FC0028F4D1EE
:10B80000284600F0F1FCF0E754F8080F61686B4639
:10B8100003C36946BDF80030ADF802303046FFF78B
:10B8200093FFE2E75875002078750020AADF704783
:10B83000ABDF7047ACDF7047ADDF7047AEDF7047FE
:10B84000B0DF704710B5044B044640F8043B01F0EC
:10B85000D2FA204610BD00BF00D8030010B5044640
:10B86000FFF7F0FF204608F0E7FC204610BDF0B5DA
:10B870000B888E88502B8BB004460D4600F0BB80A1
:10B88000512B26D18B79012B0CD1826C0AB390F805
:10B8900044305B0701F108071DD4A36C3A462146EA
:10B8A00030469847AF79022F13D1AB7B042B2CD0B5
:10B8B000062B6CD0012B0CD1E26C52B194F84430C1
:10B8C0001F0705F1080513D4E36C2A4621463046CC
:10B8D00098470BB0F0BD0323CDE906600093082123
:10B8E00006AB3846089709F023F90028D5D0D9E7E8
:10B8F000032300930E2106AB2846CDE90664089584
:10B9000009F016F90028E4D1DEE7E36B3BB94FF408
:10B91000806006F066FF4FF48063E06323641022CA
:10B92000002106A80EF0E2FB02236A8A8DF8183087
:10B930002B8AB4F840109818884208DD40F20913A9
:10B94000ADF81C3006A93046FFF77AFFC1E70020AA
:10B95000ADF81C009DF81E00ADF8203040F001004D
:10B960008DF81E00E06BADF8222005F1140118449B
:10B9700009910EF093FB6A8A2B8A1344B4F8422093
:10B980009BB2934238BF1346A4F84230DAE7E36B28
:10B99000002B9ED01022002102A80EF0A7FB00234E
:10B9A00002A930468DF80870ADF80C30FFF748FF5B
:10B9B000226D52B194F84430D8070DD4256DB4F8F7
:10B9C0004230E26B21463046A847E06B06F025FF87
:10B9D0000023C4E90F337CE70423E06BB4F8421082
:10B9E000009306ABCDE90664CDE9080109F0A0F8A3
:10B9F0000028E3D0E9E7CA88438E9A420DD1026D50
:10BA00005AB190F8443001F11207D90719D43A46D7
:10BA10002B8A276D21463046B847EA88E38E9A4242
:10BA20007FF457AF626D002A3FF453AF94F844306F
:10BA30006D8A9B0713D4636D2A462146304698478A
:10BA400047E7298A0423CDE906600093384606AB10
:10BA5000CDE9087109F06CF80028D8D0DDE70323A0
:10BA600000210093084606ABCDE90664089509F06D
:10BA70005FF80028DFD02CE7F0B5744B04461B6854
:10BA8000836197B0043001F01AFA94F82E30A0695F
:10BA900013F0320208BF84F82F2013F00C0308BF04
:10BAA00084F8303069460DF1010201F09BF994F8F9
:10BAB0002F109DF801600B0716D09DF8007001F063
:10BAC0000F0307F00F029A424FEA11104FEA1715C1
:10BAD00006D379400F0701D1854201D3284613468A
