:020000022000DC
:1060000000000420C120030001210300032103003C
:1060100005210300072103000921030000000000FF
:106020000000000000000000000000003D20030010
:106030000D210300000000005D200300112103007A
:10604000ED22030013210300132103001321030099
:106050001321030013210300132103001321030064
:106060001321030013210300132103001321030054
:106070001321030013210300132103001321030044
:1060800013210300CD1D030013210300132103007E
:10609000132103001321030095C8020013210300FC
:1060A0001321030013210300132103001321030014
:1060B0001321030013210300000000000000000072
:1060C00013210300132103001321030013210300F4
:1060D000132103001321030013210300F9720200AE
:1060E000132103001321030013210300000000000B
:1060F0000000000013210300000000001321030032
:10610000000000000000000000000000000000008F
:10611000000000000000000000000000000000007F
:10612000000000000000000000000000000000006F
:10613000000000000000000000000000000000005F
:10614000000000000000000000000000000000004F
:10615000000000000000000000000000000000003F
:10616000000000000000000000000000000000002F
:10617000000000000000000000000000000000001F
:10618000000000000000000000000000000000000F
:1061900000000000000000000000000000000000FF
:1061A00000000000000000000000000000000000EF
:1061B00000000000000000000000000000000000DF
:1061C00000000000000000000000000000000000CF
:1061D00000000000000000000000000000000000BF
:1061E00000000000000000000000000000000000AF
:1061F000000000000000000000000000000000009F
:10620000F1EE103A43F08073E1EE103A704700BFB0
:1062100010B5054C237833B9044B13B10448AFF3E0
:1062200000800123237010BDAC630020000000003B
:106230008CDE030008B5034B1BB103490348AFF3E1
:10624000008008BD00000000B06300208CDE030069
:10625000154B002B08BF134B9D46A3F5803A002138
:106260008B460F461348144A121A11F033FD0F4B98
:10627000002B00D098470E4B002B00D098470020F1
:10628000002104000D000D48002802D00C48AFF397
:10629000008011F0B5FC200029000BF053FF11F035
:1062A00089FC00BF0000080000000420000000007E
:1062B00000000000AC630020B8990020000000003E
:1062C0000000000070470346007C884207D021B9D7
:1062D00098681060197401207047D868F9E70020A9
:1062E00070477047044A02F108011C3242600022E4
:1062F00001600282704700BF38B1030037B5064C19
:10630000C26004F108054FF480721C34C0E90141F9
:106310000560028203B030BD38B10300807C0221E9
:106320000CF086BCA0F10400FFF7F8BF10B50446DE
:10633000807C0CF001FDB0FA80F10A224909054881
:106340000AF0D7F9A07C0CF0F7FCB0FA80F0400915
:1063500010BD00BF1C670020A0F10400FFF7E6BFDE
:1063600010B50446FFF7BEFF034B03F108021C33D0
:1063700022606360204610BD5CB1030037B50D4656
:10638000CDE9003211461A460446FFF7B7FF064B27
:10639000A57403F108021C33204622606360FFF7F6
:1063A000BDFF204603B030BD5CB10300704703461B
:1063B000007B88421FBF997298681060012014BF4B
:1063C0001973002070477047044A02F108011C321B
:1063D0004260002201608281704700BF80B10300EB
:1063E00013B5064A02F108041C32C0E901214FF43A
:1063F00080720460828102B010BD00BF80B10300D2
:1064000010B51B4C1B49204600F0FCF820461A49E9
:1064100000F0F8F82046194900F0F4F82046184931
:1064200000F0F0F82046174900F0ECF82046154936
:1064300000F0E8F82046144900F0E4F8204613493B
:1064400000F0E0F82046124900F0F1F8204611492A
:1064500000F0EDF82046104900F0E9F820460F4919
:1064600000F0F4F82046BDE8104000F02FB900BF5E
:106470008C640020C8630020546400200064002065
:106480001C64002038640020E46300207064002055
:10649000D4640020E4640020F4640020046500203B
:1064A00008B5044800F01EFABDE8084064200AF070
:1064B00036B900BF8C64002008B52B4A2B4B1268FC
:1064C0001B682B480D21FFF759FF2A4B2A4A1B68EE
:1064D00012682A480521FFF751FF294B294A1B68FA
:1064E000126829480721FFF749FF284B284A1B68F3
:1064F000126828480221FFF741FF274B274A1B68F3
:10650000126827481C21FFF739FF264B264A1B68D3
:10651000126826481E21FFF731FF254B25481A68CF
:10652000022100F035FA244B24481A681D2100F09E
:106530002FFA234B23481A68032100F029FA224B33
:10654000224A1B68126822481721FFF717FF214BC8
:1065500021481B6811220F2100F070FABDE80840A5
:106560001E4800F041B800BF3460002038600020B1
:10657000C8630020286000202460002054640020AC
:10658000106000200C6000200064002018600020D3
:10659000146000201C640020206000201C6000208B
:1065A000386400200860002004600020E4630020BC
:1065B00044600020D46400203C600020E46400209B
:1065C00040600020F4640020306000202C60002037
:1065D0007064002048600020046500208C64002066
:1065E000704703681B69184710B50446FFF7B8FEEB
:1065F00004F11C0000F0BEF904F12C0000F00CFACC
:10660000204610BD437C8BB98B688360CB68C36028
:106610000B7C03744B7C43748B7C8374D1F81330F4
:10662000C0F81330D1F81730C0F81730704790F821
:10663000293053B98B6843620B7B80F828304B7B41
:1066400080F829308B7B80F82A30704790F83930F9
:106650009BB98B6843630B7B80F838304B7B80F8A9
:1066600039308B7B80F83A30CB7B80F83B300B693C
:10667000C3634B6903648B694364704710B5114C65
:106680000621204604F03CF9204604F027F90E4983
:10669000204604F0F2F804F13C0004F0FFF8204634
:1066A000012104F055F92046F422202104F04CF990
:1066B00020461E2104F046F920460021BDE8104086
:1066C00004F0A4B9F47900207866002070B5214C5C
:1066D00006460421204605F0B7FE0022012120468F
:1066E00005F0D8FE0421204606F056F82046012188
:1066F00006F07DF818481949194C132206F020FAC3
:1067000013221849144806F017FA134806F052FAF3
:10671000636D0025186847F6122106F0FDFA4FF662
:10672000FF73A4F85850C4E91A33C4E9185584F823
:106730005A5009F0E9FF0323656784F87030C4F804
:10674000000184F8F850C4F8FC503046BDE87040B1
:10675000FFF794BFB473002030660020A4B103009B
:1067600020650020B8B10300F8B5E02905460C46C5
:106770009DF8180017461E461ED8411EC9B20F29A3
:1067800026D860B2002823DA6B6D0143C9B21868BD
:10679000FFF727FF6B6D07F07F01186804F0EF0427
:1067A000FFF71FFFC02C13D06B6D06F07F01186838
:1067B000BDE8F840FFF715BFF72909D90834E4B25E
:1067C000012303FA04F414F0DD0F01D06B6DEEE742
:1067D000F8BD000070B5284C284E204606F0B4F9EC
:1067E0002046274C2749324611F0ACF9802120463B
:1067F00006F0E0FE32462449204611F0A3F9234B6F
:106800001C60234C0025C4E914534FF6FF73C4E900
:106810001A3303232946C4E90055C4E90255C4E9E3
:106820000455C4E90655C4E90855C4E90A55C4E944
:106830000C55C4E90E55C4E91055C4E91255C4E914
:106840001855A4F8585084F85A5084F87030656789
:1068500084F8F850802204F1780011F03BFAA4F893
:106860000C51C4E94055C4F8085132462046094944
:10687000BDE8704011F066B930660020006000206D
:1068800078660020CD680200996802001867002031
:1068900020650020E16502000A4B10B50360283333
:1068A0000446836180300BF07FFF04F1280004F080
:1068B0009FF92046044B40F8083B05F078FC204641
:1068C00010BD00BF78B40300B4B3030010B5044B8F
:1068D000044640F8083B05F06AFC204610BD00BFA6
:1068E000B4B303001FB504461A4805F0B1FF70B3F6
:1068F000194806F00EFA50B32046FFF717FD03AA19
:10690000C1B22046FFF7DFFC58B19DF80F3000936D
:106910009DF80D209DF80E309DF80C100F48FFF7E4
:1069200023FF1C34204600F01CF803AAC1B2204605
:10693000FFF73DFD58B19DF80F3000939DF80D20F5
:106940009DF80E309DF80C100448FFF70DFF04B0C1
:1069500010BD00BFB47300207866002020650020C1
:106960007047807B0CF036B9A0F10400FFF7F9BF47
:106970007047000010B50446FFF726FD034B03F1F6
:1069800008021C3322606360204610BDCCB10300B6
:1069900037B50D46114604460192FFF721FD054B20
:1069A000A57303F1080220461C332260636003B024
:1069B00030BD00BFCCB1030010B504460221807B7E
:1069C0000CF036F9E07B02210CF032F9A07B0CF0E0
:1069D000B3F9A06110BDA0F10400FFF7EDBF10B541
:1069E0000446807B0CF0A8F9A369606198420AD044
:1069F000E07B0CF0A1F963699842236914BF01336D
:106A000003F1FF33236163692069A36110BDA0F125
:106A10000400FFF7E4BF000010B50446FFF7D4FC04
:106A2000054B03F108021C3363600023C4E90433FF
:106A30002260A361204610BDF0B1030073B50E467D
:106A40001946044615460193FFF7CAFC084BA67386
:106A500003F108021C33636000232046C4E90433B9
:106A60002260A361E573FFF7A7FF204602B070BD67
:106A7000F0B103000146014800F062BA3C67002013
:106A800038B500F0EBF800240546E0B2854203D9A2
:106A900000F004FD0134F8E738BD000070B592B095
:106AA0001E460C4615460021422201A811F012F99B
:106AB000412E5CD940F60832ADF8042040F20222A3
:106AC000ADF8082040F20942ADF80C20631C40F2FA
:106AD0000122DBB22748ADF8102005228DF81520E1
:106AE0008DF81E30242208908DF8273040F2246063
:106AF0008DF831300A238DF81620ADF824001E4A97
:106B00001E488DF8343040F2075306920A90012255
:106B10000820ADF83830402302218DF81C208DF874
:106B20002C0004224FF411608DF83C3007238DF8BF
:106B300007108DF812108DF81F20ADF82E008DF87B
:106B400030208DF833108DF83B108DF83F30422205
:106B50000B4B8DF8064001A928468DF80E408DF8A4
:106B60002640109311F08EF8422012B070BD002024
:106B7000FBE700BF2402020520010524070580036E
:106B800005800240A0F11000FFF788BF07B5036839
:106B90008DF807105B6801220DF10701984703B0DB
:106BA0005DF804FB10B5007EFF2807D000F04CFC18
:106BB000044608B90BF0C6FC204610BD0020FCE7D7
:106BC00007B5007EFF2804D14FF0FF3003B05DF819
:106BD00004FB0DF1070100F057FC0028F4D09DF8EC
:106BE0000700F3E707B5007EFF280AD001220DF168
:106BF000070100F035FC20B19DF8070003B05DF8F7
:106C000004FB4FF0FF30F9E7007EFF2801D000F0D1
:106C100045BC7047007EFF2801D000F099BC0020E1
:106C20007047F8B5037EFF2B06460F46144612D078
:106C300015465DB1307E00F0E1FB38B12A46394699
:106C4000307E00F06BFC2D1A074401D1601BF8BDAB
:106C50000BF078FCEDE70020F9E70000014B187815
:106C6000704700BF3867002000224FF47A71C0E9F6
:106C700001214261044A02F1080130320261FF221F
:106C800001600276704700BF24B20300037EFF2B31
:106C90000CD1074A13784BB901210376054B1170CB
:106CA000436100F11001044800F0F0B8704700BFE4
:106CB0003867002014B203003C67002010B5007E46
:106CC000FF2807D000F09AFB044608B90BF03AFC05
:106CD000204610BD0024FBE707B549B940B9694615
:106CE00000F0A2FB009BB3F5966F01D100F01AFBF8
:106CF00003B05DF804FB00000148FFF7B5BF00BF1B
:106D00001C670020F0B50546002004462B5D2E19B7
:106D1000002B68D003F14002D2B2012A3DD9F42BF6
:106D20003BD81A061BD40122A3F55846B6F5006FCE
:106D300033D3B3F5803F14444FD31E2853DCA3F55F
:106D4000803342009E0A0A44C3F30903A6F5205685
:106D5000A3F5105321F8106002305380D6E703F0FA
:106D6000E002C02A1BD103F01F03022206F1010C2E
:106D700016441CF8017B07F0C00EBEF1800F0CD149
:106D800007F03F07664547EA8313F2D1022A16D17E
:106D9000A3F18006B6F5F06FC6D30134B6E703F071
:106DA000F002E02A03D103F00F030322DEE703F031
:106DB000F802F02AF1D103F007030422D6E7032AF0
:106DC00004D1A3F50066B6F5784FE5E7A3F5803268
:106DD000B2F5801FE1D20422A6E7202803D021F8D3
:106DE0001030013092E7F0BDF0B5234B89B003AA13
:106DF000044603F11007154618685968164603C67D
:106E00000833BB423246F7D11B8833800FCD26466C
:106E10000FC61A4A2B681068516833806B4603C34B
:106E20006B4603CB137A84F82030154BC4F8183125
:106E30004FF48073A4F81C3104F118050123A061FC
:106E4000E16184F81E3165612022002104F598700B
:106E500010F040FF40F20943C4F82031094BC4F858
:106E60002431094BC4F828310023C4F82C31042301
:106E700084F8503109B0F0BD89B203009BB2030021
:106E80000900000158B2030061B20300F8B50E46D4
:106E90004569B0F81811B0F81A3132680D445B1A20
:106EA000176890F81C1104469BB22A463046B84732
:106EB00008B90020F8BD726829188D4233D26B786A
:106EC000042B1BD1EE78A6B994F81C31013384F859
:106ED0001C3172B194F850310B2B0AD803F14807DA
:106EE00044F827202B7294F85031013384F8503144
:106EF00032462B78002BDCD01D44DEE7052BF8D181
:106F000095F90230002BB5BF94F81D3194F81E316D
:106F10005E1C5E1CB4BF84F81D6184F81E61AE78EF
:106F20003343AB70E5E7B4F818311844636980B2B5
:106F3000A4F81801588094F81C211A710120B9E7AF
:106F400070B504460D460126FFF74EFF40F2EF23D1
:106F5000A3804FF4E1310448A671FFF797FE28465D
:106F600000F0CEF9304670BD1C6700202DE9F041DD
:106F7000D0F82C5188B08C1C002D3BD1684600F015
:106F8000D3F9224603462C46E1B28B4202F10402B9
:106F90002BD91B4D04AF05F110083E46C6462868A4
:106FA0006968BC46ACE80300083545456746F6D13C
:106FB0001DF80470124D07F00F0108A8014411F8E4
:106FC000101C22F8021C28686968B446ACE803006B
:106FD000083575456646F6D108A901EB1717013447
:106FE00017F8101C22F8041CCEE75800C0B208B0F5
:106FF000BDE8F08121462846FFF784FEF6E700BF92
:1070000078B2030010B5044679B103291BD090F87B
:1070100050318B421CD901F1480300F5AA7150F898
:107020002300FFF76FFEC0B204E0D0F82031A0F8D3
:10703000543101200130400040F44070A4F8520166
:1070400004F5A97010BD00F5A971FFF78FFFF1E7F6
:107050000020F7E7004870473C670020014B586963
:10706000704700BF3C6700200A4601460148FFF711
:10707000C9BF00BF3C670020024B186800B100691F
:10708000704700BFD068002010B4094C246808463F
:1070900011461A46BDF804302CB164691CB1A446EF
:1070A0005DF8044B604700205DF8044B704700BF5B
:1070B000D068002010B4084C2468084611461A46CF
:1070C000BDF804302CB1A4691CB1A4465DF8044B92
:1070D00060475DF8044B7047D0680020002070477F
:1070E000024B186808B190F860007047D46800201F
:1070F0002DE9F8431F461F4B044618688946904601
:10710000002834D02C2303FB04001B4B066A456A7D
:10711000846A002E08BF1E46184B002D08BF1D466E
:10712000174B3046002C08BF1C4611F0B8FC08284D
:107130000246314628BF0822484610F0A3FD2846E3
:1071400011F0ADFC10280246294628BF1022404607
:1071500010F098FD204611F0A2FC042802462146BA
:10716000384628BF0422BDE8F84310F08BBDBDE8C7
:10717000F88300BFD4680020A4B20300ADB20300BE
:10718000BAB2030070B50D4E34680546A4B12C2385
:1071900003FB0044636913B1984784F832003268F6
:1071A0002C2303FB052393F832402CB923463A22C3
:1071B0000221284600F004FF204670BDD46800205C
:1071C000054B1B6810B533B12C2404FB0030C36A97
:1071D0000B60038E138010BDD468002008B52022F8
:1071E0000023052100F0ECFE4FF0FF3008BD000049
:1071F00030B40446084611461A46064B1B6833B1A4
:107200002C2505FB0434E3690BB130BC1847012081
:1072100030BC7047D468002030B404460846194694
:10722000074B029A1B6833B12C2505FB0434A36875
:107230000BB130BC18474FF0FF3030BC704700BF77
:10724000D468002030B4044608461946074B029A19
:107250001B6833B12C2505FB0434E3680BB130BC4B
:1072600018474FF0FF3030BC704700BFD468002093
:10727000044B1B682BB12C2202FB0030036903B1C5
:1072800018477047D4680020054B1B682BB12C228F
:1072900002FB0030836903B118470120704700BF2B
:1072A000D468002003F0D6B807B5114B402283F80C
:1072B000272303F0DDF94FF080430024D3F838543E
:1072C0008DF8004068460AF0A9FF0A4B019301A817
:1072D0000BF002F80AF0CAFFEB0702D5204603F0D4
:1072E000B9F800214FF0FF3001F0B4FFF9E700BF1B
:1072F00000E100E0A5720200002002F0B3BE000031
:1073000007B500230322CDE9002304490448C8221D
:1073100009F034FF03B05DF804FB00BFBEB2030008
:10732000A97202000BF0C8BB4FF08052536E1BBA1B
:107330000360136E1BBA4360082070470048704713
:10734000C3B2030070B51A4E33680D4611466BB3D5
:10735000012D01D0012070BD1478C4F34114012C1B
:1073600013D0022C22D15278012A07D0022AF1D15F
:107370008B88072B1AD10F4A138902E0DA69AAB168
:107380001378BDE8704002F0C3BA5278222AE1D1E6
:107390004A88003A18BF01221A7602F0A1FA326830
:1073A000136A002BD6D0107E9847D3E70020D2E78F
:1073B000D86800204C60002070B500F1100504462C
:1073C000284601F06CFC3F2815D9E178002001F037
:1073D000A5FE80B1284601F062FC3F28E17807D97C
:1073E00004F536724023BDE87040002001F0B6BEBF
:1073F000002001F0A3FE002070BD000010B504467F
:1074000001F028FD08B9002010BD01F02BFD002877
:10741000F9D104484FF4567303FB0404207900F0BB
:107420000100F1E7DC680020064B4FF4567202FBC6
:10743000003050F8063F0B6083888B8083798B7116
:10744000704700BFDC68002008B5044B4FF456724B
:1074500002FB0030103001F00AFC08BDDC6800209F
:107460004FF4567370B503FB00F4064E04F11000A0
:1074700092B2304401F025FC05463019FFF79CFF1D
:10748000284670BDDC680020034B4FF4567202FBA7
:107490000030103001F018BCDC6800202DE9F0410C
:1074A000044601F0D7FC10B90020BDE8F08101F0DE
:1074B000D9FC06460028F7D14FF45671154D4C43C0
:1074C00004F12408A844404601F0D1FB0028EBD089
:1074D0002F193046B97801F021FE0028E4D004F5D8
:1074E0004674254429464022404601F0EAFBB9781B
:1074F000044658B103462A46304601F02FFE38B9FB
:10750000054B1B68DB07CFD500BECEE701F016FEAA
:107510002046CAE7DC680020F0ED00E00B4B70B5B8
:107520004FF4567404FB0034243492B205462046CE
:1075300001F0E5FB0646204601F099FB3F2802D901
:107540002846FFF7ABFF304670BD00BFDC68002067
:1075500008B5044B4FF4567202FB0030243001F0A2
:107560009EFB08BDDC68002073B51B4C4FF45672BF
:107570000021204610F0AEFBFF2363714FF442431D
:1075800001250026E3800823237304F138012B46EC
:1075900000964FF4807204F110002581668101F09D
:1075A00035FB2B464FF4807204F59C71009504F175
:1075B000240001F02BFB04F50E71284609F08AFA2D
:1075C00004F52271C4E90760284609F083FAC4E98A
:1075D0000C0602B070BD00BFDC68002010B5094C7D
:1075E00000232360237104F11000243401F08DFB8B
:1075F000204601F08AFB20460121BDE8104001F041
:10760000A4BB00BFDC680020F7B54B79022B07460E
:1076100003D00025284603B0F0BD8B79022BF8D1AA
:107620001F4EB3787BBB8B7833700C7809250C44E4
:1076300003E023781D44ADB21C446378242B1BD196
:107640009542F6D96378042B12D163790A2B0FD1B6
:10765000144B267801930133009302231A46A11993
:10766000384601F027FD70B10E3516FA85F5ADB23A
:107670000B48FFF7A1FECDE7052BE3D121463846A5
:1076800001F0F4FC28B9084B1B68DB07C1D500BE2C
:10769000BFE7A378737023781D44ADB21C44D1E7D3
:1076A000DC680020DE680020F0ED00E038B50B4615
:1076B0001146127802F06002202A47D1244A8C88B1
:1076C0001578A54242D14C78203C032C3ED8DFE807
:1076D00004F002141731012B05D11E4A072302F0D2
:1076E00017F9012038BD032BFBD11B4B002BF8D021
:1076F00018490020AFF30080F3E7012BF1D1ECE74C
:10770000012B02D102F0ECF8EBE7032BE9D14C8816
:107710001248147104F0010585F0010101F015FB18
:107720000F4B002BDDD0C4F3400229460020FFF7A9
:10773000D3FAD6E7012BE5D0032BD2D1094B002B8E
:10774000CFD049880020AFF30080CAE70020C9E706
:10775000DC680020E26800200000000000690020D2
:10776000D96C0200000000002DE9F3471C46374B9E
:10777000DA788A4207460E461D4607D09B788B4230
:1077800058D1AB78B34232D001245AE003F53671B8
:1077900003F11000A2B201F0B2FA2D4B2BB92D4B20
:1077A000EBB92A48FFF708FEEBE76B79FF2BF6D021
:1077B00005F536794FF0000805F1100AA045EED026
:1077C00019F8013B6A799A4206D1504601F05FFAF6
:1077D00010B96979AFF3008008F10108EEE71E489F
:1077E00001F055FA0028DCD1AFF30080D9E71B4B3C
:1077F00013B10020AFF300800020FFF74FFE0028F8
:10780000C2D1174801F033FA0028BDD1002CBBD0FB
:1078100014F03F03B8D1A9780193384601F07EFCFB
:10782000019B04460028AFD0A9781A46384601F0DB
:1078300095FC06E00B4B1C6814F0010401D000BE5F
:107840000024204602B0BDE8F08700BFDC680020BD
:107850000000000000000000EC68002000000000B4
:1078600000690020F0ED00E002488C22002110F0B9
:1078700031BA00BF346C00200020FFF7F5BF0000D4
:107880002DE9F7430D4680466B79032B114604D052
:107890000024204603B0BDE8F0832A79C2EBC2047D
:1078A0001234A4B28C4205D9214B1B68DA07EFD5FC
:1078B00000BEEDE71F4E96F801E03746BEF1000F1F
:1078C000F2D195F800C005EB0C0191F80190B9F1E7
:1078D000210FE9D1C6F8881015F80CC006F1010E89
:1078E0000236CDF804E00096614401F0E3FB002885
:1078F000DAD0AB79B978012B04BFEB79FB700123A7
:107900003B71AB783B70D7F88830B3F80730FB8019
:107910000029BED0084A4023404601F01FFC002841
:10792000B7D1034B1B68DB07B3D500BEB1E700BF7F
:10793000F0ED00E0346C00207C6C002013782DE921
:10794000F341154603F01F02012A06460C4601D0FA
:1079500000246DE0DFF8C081AA8898F80010D2B248
:1079600091424746F4D113F060031FD0202BEFD192
:107970006B78013B0A2BEBD801A252F823F000BF31
:10798000F3790200BB7A0200C77A02005179020043
:1079900051790200517902005179020051790200B7
:1079A0004D7A0200977A0200D37A0200012C01D0AE
:1079B00001243DE06A78062ACAD16A88120A212A7F
:1079C0000AD1D8F88820002AC2D01378294602B0FC
:1079D000BDE8F04101F09CBF222AB9D11846FFF75B
:1079E0004BFBB8F8063002462946304601F090FFBE
:1079F0001EE0012CDCD1EB886988402B4FEA112274
:107A0000184628BF402011F0FF0115D0012B13D9D3
:107A10000138384B397280B200900020FFF734FBF8
:107A20000444A4B25CB9344B1B68DB0790D500BE9C
:107A3000204602B0BDE8F081304B0024ECE72F4A2D
:107A400023462946304601F063FFB1E7012C05D1FA
:107A5000EB88402B3FF67CAF294AC5E7032CA7D122
:107A6000EB886988402B4FEA1122184628BF402036
:107A700011F0FF010DD0012B0BD997F848308B4244
:107A800007D101381F4B80B200900020FFF712FB96
:107A90008EE71B4BF8E7012C8AD169881A4B090A3B
:107AA00079712BB10020AFF3008000283FF450AF74
:107AB0002946304601F014FF7AE7012C7FF478AFB5
:107AC000124A234690E7012C7FF472AF104A2346F6
:107AD0008AE7012CECD0032C7FF46AAF69880D4B48
:107AE000C9B23971002B3FF463AF0020AFF30080BF
:107AF0005EE700BF3D6C0020F0ED00E03C6C002034
:107B00007C6C00207D6C002000000000396C00209F
:107B1000386C002000000000346C002037B51A4C8F
:107B2000A2788A42054660780CD0884224D1174A50
:107B300012B9012003B030BD15499AB20020AFF34D
:107B40000080F6E79042F2D000229BB21146104628
:107B5000009304F14803FFF7ADFAA178402304F144
:107B60004802284601F0FAFA0028E2D1094B1B68C6
:107B7000DA0706D500BEDDE7064B1B68DB0700D53C
:107B800000BE0020D6E700BF346C002000000000DB
:107B90003C6C0020F0ED00E070B500F110050446EB
:107BA000284601F07CF83F2817D9A178002001F081
:107BB000B5FA90B1284601F072F83F28A17807D9AC
:107BC00004F5EC724023BDE87040002001F0C6BA15
:107BD000BDE87040002001F0B1BA70BD70B500F191
:107BE00024040546204601F042F808B9002070BD83
:107BF0006978002001F092FA0028F7D005F50676A2
:107C000031462046402201F05CF86978044658B1BC
:107C100003463246002001F0A1FA38B9044B1B6834
:107C2000DB07E3D500BEE2E701F088FA2046DEE795
:107C3000F0ED00E037B5154C00254FF41672002129
:107C4000204610F047F804F1380100950123802206
:107C500004F1100000F0DAFF0123802204F1B801E2
:107C6000009504F1240000F0D1FF04F59C7101207F
:107C700008F030FF04F5C471C4E90750012008F092
:107C800029FFC4E90C0503B030BD00BF14970020E4
:107C900010B5084C10220021204610F01BF804F10A
:107CA000100001F032F804F12400BDE8104001F0AA
:107CB0002CB800BF149700202DE9F0474B79012B19
:107CC0008046924603D000252846BDE8F0878B7990
:107CD000012BF8D1CB79002BF5D10C7823460C443D
:107CE0006278242A06D15345EDD8227813449BB2FA
:107CF0001444F5E7042AE6D16279012AE3D1A27996
:107D0000032AE0D1E579002DDDD11E4A577891781C
:107D10000F43914630D1A27889F8002026789D192A
:107D2000ADB2264410E0B378DA0914BF89F8013007
:107D300089F80230337801371D44ADB21E44FFB2DA
:107D400033781D44ADB21E442379BB4203D80D489D
:107D5000FFF722FFB8E75545F9D87378052BEFD127
:107D60003146404601F082F90028DCD1064B1B6801
:107D7000DA07A8D500BEA6E7034B1B68DB07A2D530
:107D800000BEA1E714970020F0ED00E0002070474E
:107D900073B51F4D1C46AB788B4206461DD06B78E1
:107DA0008B422BD12846FFF719FF28BB05F1240091
:107DB00000F05DFF00BBFCB114F03F031CD16978FB
:107DC0000193304601F0AAF9019B0446A0B16978FD
:107DD0001A46304601F0C2F917E0A2B205F5EC717F
:107DE00005F1100000F08BFF0A4B13B10020AFF338
:107DF00000800748FFF7D0FE012406E0064B1C6810
:107E000014F0010401D000BE0024204602B070BD71
:107E10001497002000000000F0ED00E0034B43F653
:107E200002229A87002283F83E207047C06E00200D
:107E300030B4104B02249A6B83F82C10996883F8A5
:107E4000304093F83C408A1A9A6224B942F2050500
:107E50009D8783F83E4051B14AB11A7BD20930BCAC
:107E600014BF93F82E1093F82F1001F0B7B930BC5F
:107E7000704700BFC06E002038B5144B144C054647
:107E800073B1607BFFF700FA50B942F2077384F8D0
:107E90003E00A38728460121BDE83840FFF7C8BF50
:107EA000A26BA36894F82F109B1AB3F5007F28BF2C
:107EB0004FF40073074A9BB2284601F04FF920B9EE
:107EC000054B1B68DB0700D500BE38BD8972020078
:107ED000C06E0020C06C0020F0ED00E070B5254CB5
:107EE000E28AA36852BA92B286B0054612B1B3FBD9
:107EF000F2F292B2A06BD4F81110B0FBF2F61B1A9A
:107F0000B3F5007F28BF4FF4007309BA009302FB5A
:107F10001602194B607B3144FFF77EF9031E07DA26
:107F2000FFF77CFF01212846FFF782FF06B070BDF6
:107F300094F82E1010D1CDE9033307228DF81010DC
:107F400003A819468DF80C508DF80D2005938DF877
:107F5000113000F0F3FFE9E7074A9BB2284601F031
:107F6000FDF80028E2D1054B1B68DB07DED500BE1B
:107F7000DCE700BFC06E0020C06C0020F0ED00E028
:107F8000C28A836852BA92B223B9002A0CBF002079
:107F900002207047C17B282904D1017BC90906D181
:107FA000022070472A2902D1017BC909F8D122B1E8
:107FB000934234BF02200020704701207047000028
:107FC000044880F83C1080F83D2080F83E300120C5
:107FD000704700BFC06E00200248402200210FF011
:107FE00079BE00BFC06E00200248402200210FF081
:107FF00071BE00BFC06E002073B54B79082B0546DB
:1080000002D0002002B070BD8B79062BF9D1CB795C
:10801000502BF6D1162A05D8174B1B68D907F0D577
:1080200000BEEEE7154C8B7884F82D3004F12E035A
:108030000E78019304F12F03009302231A46314472
:1080400001F038F828B90C4B1B68DA07D9D500BE07
:10805000D8E7002384F8303094F82F101F232246ED
:10806000284601F07BF820B9034B1B68DB0700D5DD
:1080700000BE1720C6E700BFF0ED00E0C06E002094
:10808000F0B5012985B00646154615D1137803F0E1
:108090007F02022A46D16C78012C43D16A88002ADB
:1080A00040D13C4AAB8892F83070042FDBB21546C1
:1080B00004D1194601F092F8012017E092F82E1031
:1080C000994215D1022FF7D19368946B1B1B9362D1
:1080D000032382F830300D23203201F03FF80028CE
:1080E000EAD12D4B1B68DB0752D500BE05B0F0BDB1
:1080F00092F82F109942DFD1002FDDD1019101F0CC
:108100005FF801990028D7D1304601F0ADFB002877
:10811000D2D1002385F830301E4A95F82F101F2346
:108120003046DAE703F06003202B31D16B78FE2B69
:1081300013D0FF2B2CD16B8853BBE9888AB23ABB92
:10814000144B304699872946C3E90D2283F8302025
:1081500083F83E2001F0C4FBAEE76B88C3B9EB881F
:10816000012B15D18DF80F300C4B1BB1FEF7B8FF6A
:108170008DF80F009DF80F3053B1013B8DF80F3093
:108180000DF10F0201232946304601F0C1FB93E7B0
:108190000020ABE7C06E0020F0ED00E0E1700200CF
:1081A0002DE9F041AB4C94F83070012F8EB00546AC
:1081B0001E4600F09F81032F00F00D82002F42D158
:1081C00094F82F308B4201D0012013E01F2E03D1F1
:1081D0002268A14B9A4210D094F82E10042328460E
:1081E00084F8303000F0FAFF94F82F10284600F0A1
:1081F000F5FF00200EB0BDE8F081984B2362636864
:10820000E67BD4F8088084F82C70C4E90937012390
:1082100084F8303006F0FD03282BC4E90D872CD1FB
:108220002046FFF7ADFE014618B12846FFF700FED5
:1082300009E0B8F1000F00F05781282E40F0AA8124
:108240002846FFF74BFE94F83030022BBCD194F84F
:108250002E10284601F008FB0028B5D1A368A26BB8
:1082600094F82E10934240F2DF81207BC00900F089
:10827000DB81284600F0B2FFA6E7B8F1000F15D069
:10828000237BDB0912D1B8F5007F01D90121CCE7AE
:10829000734A1FFA88F3284600F060FF0028D2D105
:1082A000704B1B68D907A4D500BEA3E7252E94F810
:1082B0000D8008D8192E14D8032E00F0DD80122E60
:1082C00000F08C8066B394F83C30002BDED1A38E96
:1082D000634A6549607BFEF781FF002880F2FD80DC
:1082E000D4E71A3E0B2EEED801A353F826F000BFB8
:1082F0001F8402003B830200C7820200C782020083
:10830000C7820200C7820200C7820200C782020041
:10831000C782020095830200C782020057830200D1
:108320004046FEF72FFF002840F0DA8094F83C30FA
:10833000002BC8D1FFF772FDC5E74C4B002B00F0B6
:10834000CF80E17C4046C1F3400301F001020909FE
:10835000FEF74EFFE7E704AA05A94046FEF730FF07
:10836000059B002BE2D0BDF81020002ADED03C494E
:10837000013B1BBA12BAC1E900320820A368002BE6
:1083800084D0834228BF03466363354A94F82E1095
:108390009BB280E700230DF10E0205AE04A9404612
:1083A000C6E901330593FEF70BFF049A002ABDD0FE
:1083B000BDF80E30002BB9D012BA5BBA0821069274
:1083C0000222ADF81E308DF817108DF81C2096E8AB
:1083D0000700234B83E807000C20CFE7244B204FF6
:1083E0000022CDE905324FF020361F231022202134
:1083F00009A8CDE907668DF818300FF06BFC0D96D3
:108400000DAB09AA07A9404605AEFEF771FE0FCED7
:108410000FC70FCE0FC733683B602420AEE7059B24
:1084200003F4000343F003030593124B7BB1404672
:10843000FEF72AFF9DF8163080F0010060F3C713A5
:108440008DF81630064B059A1A60042096E7012035
:10845000F0E700BFC06E00205553424355534253CE
:10846000C06C0020F0ED00E0CF6E0020F171020042
:1084700000800202897202001222002105A80FF07A
:1084800029FC94F83C0094F83D1094F83E208DF8B7
:108490002010F0238DF814304FF0000360F3030335
:1084A0008DF816300A238DF81B308DF8212005AE8B
:1084B0000FCE644F0FC733683B80634BC3B14FF49B
:1084C0000072A7F110014046AFF3008000239842EC
:1084D000A38784F83E30FFF6F6AE00287FF44EAF57
:1084E000A368002B7FF4D2AE022384F83030AAE6D2
:1084F0001220EBE7E37BA26B282B05D1636B3244A0
:108500009A42A263F0D29BE62A2B47D1E08A40BA76
:1085100080B218B1A368B3FBF0F080B2D4F81110A8
:10852000484FB2FBF0FC09BA00FB1C220096607BAE
:108530003B466144FEF786FE002805DAA36B334410
:10854000A363FFF76BFCA1E686421DD9361A40B142
:10855000A16B11FA80F1A1633246391838460FF049
:108560009FFB002194F82F300796072205A8CDE93C
:1085700005118DF814508DF815208DF818308DF8F0
:10858000191000F0DBFC5EE6A36B1E44636BA66370
:108590009E42A9D22846FFF76FFC54E6237B324463
:1085A000DB09A2630CD1A38E264A607B04F10F0184
:1085B000FEF714FE002803DA39462846FFF738FC98
:1085C000D4E90D329A428FD2204B1B68DB077FF52E
:1085D0003AAE00BE37E694F82E308B427FF433AECD
:1085E0000D2E7FF430AEE37B282B09D02A2B14D03C
:1085F000174B53B1607B04F10F01AFF3008004E02F
:10860000144B13B1607BAFF30080002384F830304B
:10861000114A94F82F101F233DE6104B002BF4D085
:10862000607BFEF725FEF0E79B1AA362032384F824
:1086300030300B4A0D23284600F090FD00287FF4CF
:10864000C3AD2DE6C06C002000000000F0ED00E09E
:108650000000000000000000C06E002071720200E7
:10866000E06E002070B504468178002000F0A8FD7F
:10867000054668B9201D00F012FB3F2808D9A178F3
:1086800004F5A67228464023BDE8704000F066BDA0
:1086900070BD0000F8B505464178002000F090FD5F
:1086A000064610B100242046F8BD05F5C6774022E5
:1086B000394605F1180000F004FB04460028F1D00B
:1086C000034669783A46304600F048FD0028EAD172
:1086D000034B1B68DB07E5D500BE0446E3E700BF9C
:1086E000F0ED00E037B5144C00254FF4E6720021A0
:1086F00020460FF0EFFA04F12C01009501234022EF
:10870000201D00F083FA0123402204F16C01009542
:1087100004F1180000F07AFA04F1AC01012008F02D
:10872000D9F904F1FC01C4E90450012008F0D2F9A0
:10873000C4E9090503B030BD006F002010B5064C38
:108740002046002340F8043B00F0DFFA04F1180053
:10875000BDE8104000F0D9BA006F00202DE9F341C8
:1087600013464A79FF2A07460D4603D0002002B07F
:10877000BDE8F0811E4E7178B2780A43F6D1AA782E
:10878000287832702A792C1872B3234401E02178BA
:108790000C446178052901D09C42F8D3DFF8588059
:1087A000CDF8048008F101030093214602233846E6
:1087B00000F080FC28B90F4B1B68DB07D6D500BE44
:1087C000D5E72B79B178C3EBC3031C4439B14023FF
:1087D00008F24B12384600F0C1FC0028EBD0737849
:1087E00013B10348FFF756FF601B80B2BFE700BF1D
:1087F000006F0020F0ED00E0016F002008B5114887
:1088000082788A4204D042788A4211D0002008BD82
:108810009AB200F5A671043000F071FA0A4B13B158
:108820000020AFF300800748FFF71CFF0120EEE7B0
:10883000064A1AB199B20020AFF300800148FFF751
:1088400029FFF3E7006F0020000000000000000097
:108850000A4492B291424FEA400001D8824201DBC1
:10886000121A92B21046704738B50546D41A084617
:10887000A988A4B29A423CBF04EB4104A4B2B4B1AB
:10888000A14205D2914294BF531A8B189BB26B81BF
:10889000994209D9EA882968C2F30E0202FB031142
:1088A0000FF0F0F9012038BD5B1A9BB2F0E72046CB
:1088B000F9E7930813B501EB8303044699420BD102
:1088C00012F0030206D0002301A801930FF0DAF999
:1088D000019B236002B010BD51F8040B2060EDE74E
:1088E0002DE9F04385B08588BDF830401E1BB6B237
:1088F000A3423CBF06EB4506B6B280460F4666B3C0
:10890000B54206D29D4294BF5C1BEC18A4B24481D0
:108910002E46964228BF1646A54222D9B8F8060030
:108920009DF83430D8F80010A5EB0409751BC0F38E
:108930000E0225441FFA89FC15FB02F519FB02F90A
:10894000012B1FFA89F9ADB202FB041116D066455E
:108950000AD8724338460FF095F9304605B0BDE8A5
:10896000F083641BA4B2D7E74A4638460FF08AF971
:10897000D8F800102A4607EB0900ECE7664506D850
:1089800016FB02F292B23846FFF793FFE5E729F0B3
:108990000304A4B2224638460191FFF78AFF19F07A
:1089A000030929D0C9F104039BB2AB42019928BF46
:1089B0002B4600222144ED1A03A80392ADB201EB2D
:1089C00009040246A1420DD1D8F8001009F1FF397F
:1089D00091440B4499420AD1039B3B60002DBCD0CB
:1089E0002A46D0E711F801CB00F801CBEAE711F8ED
:1089F000012B09F8012FEDE7D8F80010EEE77FB55D
:108A0000044600690D461E4628B14FF0FF3103921F
:108A100008F05AF9039A2389618989B2CDE90016D1
:108A20009BB229462046FFF75BFF61890246054657
:108A300089B2A088FFF70CFF6081206920B1002374
:108A40001A46194607F0C2FF284604B070BD13B598
:108A5000930800EB8303984209D112F0030204D07B
:108A60000B68019301A90FF00DF902B010BD0C685D
:108A700040F8044BEFE72DE9FF470646C0680F4674
:108A80001546984618B14FF0FF3108F01DF9F379FB
:108A9000B6F808907189B488DB091FFA89F989B2A0
:108AA0001CD1894536BFC1EB4401A9EB0101494402
:108AB00089B2A14236BF611A002189B28D4228BF16
:108AC0000D46002D55D1F06820B100231A461946F5
:108AD00007F07CFF284604B0BDE8F087A5420BD321
:108AE000B8F1000F05D1F3882D1BC3F30E0303FB70
:108AF000057789462546E4E789454FEA440236BFB3
:108B0000531AA9EB01034B449BB22B449342D8DB8D
:108B1000621B92B22046FFF79BFE8146D1E7ACEB89
:108B200004001FFA80FCA445F9D2F2883068A4EB57
:108B30000C0A2C1BC2F30E0364441FFA8AF114FBC7
:108B400003F41AFB03FAB8F1010F1A461FFA8AFA66
:108B5000A4B203FB0C0017D08D420CD86A433946EF
:108B60000FF090F8B0882A464946FFF771FE308131
:108B7000A9E7CC46D7E7524639460FF083F830686C
:108B8000224607EB0A01EBE78D4206D815FB03F2FC
:108B900092B23946FFF75BFFE4E72AF003081FFAB9
:108BA00088F8424639460190FFF751FF1AF0030A50
:108BB0002AD0CAF104039BB2A34201983A680392F7
:108BC00028BF2346E41A08F1FF380DF10C0CA4B2BB
:108BD00040445146624601391CF801EB00F801EFB0
:108BE00011F0FF01F7D1306892440AEB0301421EF5
:108BF000514504D11844002CB4D02246C9E71AF8D4
:108C000001CB02F801CFF3E73068F4E7B2F5004F8B
:108C1000F8B504460F4616461D4626D8C06818B15A
:108C20004FF0FF3108F050F8206918B14FF0FF31D4
:108C300008F04AF89DF81830E0682760C5F30E0583
:108C400045EAC33500236381A680E580238118B1FE
:108C50001A46194607F0BAFE206920B100231A46C9
:108C6000194607F0B3FE012000E00020F8BD03899B
:108C7000428981889BB292B2934236BFC2EB4102D5
:108C80009B1A9B1898B2884228BF084670470289F1
:108C9000438992B29BB2D31A584258417047828896
:108CA000038940899BB280B2834236BFC0EB420049
:108CB000181AC01880B2824286BF101A80B20020F3
:108CC00070470023FFF79BBE38B5044600690D4688
:108CD00018B14FF0FF3107F0F7FF22896389294669
:108CE0009BB292B22046FFF7BFFD0546206920B136
:108CF00000231A46194607F069FE284638BD12B10E
:108D00000023FFF7B8BE1046704710B50446C06890
:108D100018B14FF0FF3107F0D7FF206918B14FF0BD
:108D2000FF3107F0D1FFE06800236381238118B190
:108D30001A46194607F04AFE206920B100231A4658
:108D4000194607F043FE012010BD38B50446C0683F
:108D50000D4618B14FF0FF3107F0B6FF206918B18A
:108D60004FF0FF3107F0B0FFE379E06865F3C71318
:108D7000E37120B100231A46194607F027FE206947
:108D800020B100231A46194607F020FE012038BD05
:108D90000B4B63B10B4B1B78834206D90A4B1B6804
:108DA00000EB400003EBC0007047C01AC0B20428BB
:108DB00003D8064B00EB4000F4E70020704700BFEB
:108DC00000000000D0700020CC700020FCB2030036
:108DD00070B5134E054600242046FFF7D9FF28B989
:108DE000104B1B68DB0700D500BE70BD43682846EA
:108DF000984733780134E4B20433A342ECDA3722E3
:108E0000002109480EF066FF1022FF2107480EF0EE
:108E100061FFBDE8704006481222FF210EF05ABFE4
:108E2000D0700020F0ED00E02471002027710020B8
:108E30003771002037B50C4605460868019200F0EE
:108E4000A7FD2368019A0121284603B0BDE8304000
:108E500018470000024B5878003818BF01207047AF
:108E600024710020024B1878C0F38000704700BFC7
:108E700024710020024B1878FF3818BF012070477A
:108E800058610020F7B5234D2B78FF2B04463DD1C8
:108E90003722002120480EF01DFF2049012007F055
:108EA00019FE1F4B186030B91E4B1B68DB072FD40F
:108EB000002003B0F0BD1C490B46002233F8080B1C
:108EC00000924A68498807F045FD184B1860002851
:108ED000EAD0174B23B11748AFF30080164B186048
:108EE000144F00263046FFF753FF0028DCD00368FC
:108EF00098473B780136F6B20433B342F2DA2046A3
:108F00002C7000F0D4FE204600F0D2FE0120D0E705
:108F100000BECEE75861002024710020D4700020EC
:108F20005C710020F0ED00E0006100206071002025
:108F300000000000D0700020CC700020F0B5437815
:108F4000023B85B004460D46032B22D8DFE803F030
:108F50000261192D394A13786FF3000313701378E7
:108F60006FF34103137000235370117863F3820190
:108F70001170334A10688DB92B464FF0FF322146ED
:108F800043E02E4B1A78D00741D51A7842F00402FC
:108F90001A702B4B1868002DEED0002301AA214631
:108FA000019307F0BEFD019B3CE0244A1378D907EA
:108FB0002DD513786FF382031370EAE7FFF7E8FE0D
:108FC00020B1436913B161682078984701363B7836
:108FD000F0B204338342F1DA184A13785B0716D5EE
:108FE00013786FF38203137022780023CDE90133E5
:108FF0008DF8042005228DF80520114A039310688E
:1090000055B92B464FF0FF3201A907F0DFFC05B040
:10901000F0BD0C4F0026DAE76A4601A9009307F07D
:1090200080FD009B002BF2D0074B4FF080525A601E
:1090300040BFBFF34F8FBFF36F8FE8E7247100206D
:1090400060710020D070002000ED00E01FB500230B
:10905000CDE9020101931146082301A88DF80530DE
:10906000FFF76CFF05B05DF804FB000038B58B78A6
:1090700003F07F03082B0C4606D90B4B1B68DB075C
:1090800000D500BE002038BD084B1D78084B204697
:10909000997801F043FB0028EFD021462846BDE82F
:1090A000384000F01DBE00BFF0ED00E05861002028
:1090B000247100202DE9F047DDE9085681460C4671
:1090C00090469A460027B84501DC01200CE0637801
:1090D000052B04D1E37803F00303534508D00E4B6E
:1090E0001B68DA0702D40020BDE8F08700BEFAE76B
:1090F00021464846FFF7BAFF28B9074B1B68DB0734
:10910000F1D500BEF0E7A378DA0914BF33702B70F5
:10911000237801371C44D6E7F0ED00E0CB0901F0DD
:109120007F00253303EB4003024A034811681844CB
:1091300001F0ACBA5C71002024710020CB0901F071
:109140007F00253303EB4003024A034811681844AB
:1091500001F0C5BA5C71002024710020154838B5B3
:1091600001F07F0500EB450000EBD114203460795D
:10917000C00707D5104B1B68DA0701D4002038BDA3
:1091800000BEFBE7607940F0010060710B48007899
:1091900000F07AFE0028F2D1637960F30003637176
:1091A000637960F382036371034B1B68DB07E5D5CA
:1091B00000BEE4E724710020F0ED00E058610020DB
:1091C000054B01F07F0203EB420303EBD11191F851
:1091D000250000F0010070472471002010B50C4BF1
:1091E00001F07F0203EB420303EBD11420346379D7
:1091F0009B070BD4074B187800F0BEFE637943F051
:1092000002036371637943F00103637110BD00BF12
:10921000247100205861002010B50C4B01F07F0232
:1092200003EB420303EBD114203463799B070BD586
:10923000074B187800F0C4FE63796FF34103637144
:1092400063796FF30003637110BD00BF24710020C8
:10925000586100202DE9F04F984B1B78FF2B8BB005
:10926000834600F0B4824FF47A72002380024FEA02
:109270009B510EF0D7FA012838BF0120904E049080
:10928000904BBBF1FF3F18681BD0049BBBF1000F54
:1092900014BF1A46002207A907F09CFC002800F022
:1092A00096829DF81D30013B072B00F2D282DFE849
:1092B00013F00A001B00D0029902BD0227006702CA
:1092C000C9025A46E7E79DF81C00FFF781FD00F050
:1092D00057FB7D4B9DF820209A707A4B186807F059
:1092E00089FD0028CCD172E29DF81C00FFF770FDCB
:1092F00000F046FB754B002BEFD0AFF30080ECE79E
:10930000714C9DF81C50237843F00103237094F8AE
:1093100025306FF3000384F8253094F825306FF37F
:10932000820384F8253094F826306FF3000384F824
:10933000263094F826306FF3820384F8263000201C
:1093400000F026FB9DF8207007F06009B9F1600F6E
:109350000ED13368DC0700D500BE9DF81C0000214B
:1093600000F00AFE9DF81C00802100F005FEB4E725
:10937000B9F1400F0CD156480028EED000F008FBA0
:1093800008AA01212846FDF7DDFF0028A5D1E4E762
:1093900007F01F07012F00F08081022F00F0A98144
:1093A000002FD6D1B9F1200F10D19DF824300F2B0A
:1093B000D3D81C44E078FFF7EBFC0028CDD008AAF6
:1093C00000F10C012846FFF735FDDEE7B9F1000F8B
:1093D000BFD19DF82130092BBBD801A252F823F050
:1093E0008596020073960200539302005F96020076
:1093F00053930200099402009F95020053930200C8
:10940000239402003994020008A800F0C7FA9DF8DE
:109410002210284600F052FC237843F00203237008
:109420005BE763788DF81A3001230DF11A0208A961
:10943000284600F06DFA50E79DF822300193019A1A
:1094400063789A4232D063783BB1284600F0D2FC70
:10945000A7782846FFF7BCFCA770019B33B3581EC2
:10946000C0B2FDF7FBFD10B14378022B05D0336885
:10947000DB077FF56EAF00BE6BE7C379C3F38012E5
:10948000C3F340131B0143EA4213227822F0300257
:10949000134323704388C31800F109070293029B0A
:1094A000BB4219D80B4B0BB1AFF30080019B63702B
:1094B00008A9284600F014FA0FE700BF5861002001
:1094C000F0ED00E060710020247100200000000039
:1094D00045730200000000007B780B2B03BF3A7835
:1094E000FB78BF1801237A78042AC0D1029AA2EB34
:1094F000070A1FFA8AF203924FF0000AC14A127853
:109500005FFA8AF804324245B1DB40460593FFF723
:109510003FFC059B81460028A9D0039A0593394654
:10952000D9F80830284698470828059B024633D9C1
:109530000399814230D3012B09D1D9F80810B248E0
:10954000814208BF0223B148814208BF02234FF085
:10955000000E5FFA8EF18B420DD843463946AC4877
:10956000039201F00BF9A74B039A1B78043398453B
:10957000174494DD7BE797F802C0A648614450FA8F
:1095800081F10EF1010E91F803C0BCF1FF0F7FF4E1
:109590006EAF81F80380DCE70AF1010AAEE7BDF89F
:1095A0002200030A5A1EC0B20E2A3FF6D6AE01A10F
:1095B00051F822F0F19502001B9602003D96020040
:1095C0005B9302005B930200519602001B9602001F
:1095D0005B9302005B9302005B9302005B930200CB
:1095E0005B9302005B9302005B9302000396020010
:1095F000FDF730FD1223024608A9284600F088F93D
:10960000C3E6854B002B3FF4A8AEFDF797FE02465C
:1096100000283FF49EAE4388EEE7022B07D1FDF70A
:109620001DFD00283FF495AE43880246E4E77B4BDE
:10963000002B3FF492AEAFF30080F2E7BDF82410A8
:10964000FDF712FD024600283FF487AE0378D3E70A
:10965000734B002B3FF481AEAFF30080F2E7BDF80F
:109660002230012B7FF479AE237843F00803237076
:109670001EE7BDF82230012B7FF46FAE23786FF325
:10968000C303F4E72378C3F340129B0803F00203FB
:109690001343ADF81A300223C7E69DF824300F2B90
:1096A0003FF65BAE1C44E078FFF772FB00283FF406
:1096B00054AE00F10C0108AA2846FFF7BBFB0028B6
:1096C0007FF40BAE9DF8203013F060047FF445AEBC
:1096D0009DF821300A3B012B3FF63FAE00F058F9D0
:1096E0009DF821300A2B7FF4E3AE8DF81A403B46FB
:1096F0009BE69DF8241001F07F02082A3FF629AE70
:1097000004EB420202EBD112D07CFFF741FB804612
:10971000B9F1000F06D000283FF41FAE08AA00F1EF
:109720000C014FE69DF8213003F0FD00012809D01F
:10973000002B7FF40EAE92F82530C3F34003ADF852
:109740001A30D4E7BDF8222022B9012B284614D1C3
:10975000FFF762FDB8F1000F3FF4BFAD08AA08F1B2
:109760000C012846FFF766FB002000F011F994F881
:109770002630DF073FF5B1AD9AE6FFF72FFDE9E7A9
:109780009DF82010234B01F07F0403EB440303EB0F
:10979000D11393F825006FF3000083F8250093F8A8
:1097A00025006FF3820083F825003CB9099B9DF8E2
:1097B00021209DF81C0000F0FFF88EE5D87CFFF713
:1097C000E7FA38B9174B1B68D80700D500BE0BB0B5
:1097D000BDE8F08F0469099B9DF821209DF81C00CD
:1097E000A0477AE50B4B1A78D1077FF576AD0E4A84
:1097F000002A3FF472AD1878C0F3C000AFF30080C8
:109800006BE500BFD070002009760200B97C020031
:1098100037710020247100203D7302000000000019
:1098200000000000F0ED00E0000000000C4B1B7891
:10983000DA077FF552AD0B4B002B3FF44EADAFF383
:1098400000804AE5089B002B3FF447AD09989847F4
:1098500043E53368DB077FF540AD00BE3DE500BF63
:109860002471002000000000054B01F07F0203EB93
:10987000420303EBD11191F82500C0F3400070477B
:109880002471002037B514490446CA89888991F9A2
:109890000050831A9BB2402B28BF4023002D10DAC2
:1098A000904214D01A4689680C4801930EF0EAF9E8
:1098B0000A4A019B8021204603B0BDE83040FFF7F3
:1098C0004DBC90424FF0000103D10022F3E780210C
:1098D000FBE7024AEFE700BF247200203872002045
:1098E00030B40A4C05460A4608684968234603C353
:1098F00092F9002000239A42C4E9023328461A460E
:1099000030BCACBF80211946FFF728BC2472002070
:10991000F8B5194E0C46054608684968B2603746E6
:1099200003C70021F181E1888B4228BF0B46B38138
:1099300079B143B13AB9114B1B68DA0701D4002061
:10994000F8BD00BEFBE72846FFF79CFF68B1012089
:10995000F6E794F90030002B0A460B462846ACBFC8
:1099600080210021FFF7FAFBF0E7044B1B68DB07BF
:10997000E5D500BEE4E700BF24720020F0ED00E072
:109980000248142200210EF0A5B900BF2472002065
:10999000014B1861704700BF2472002010B50246C9
:1099A000044C00685168234603C30023C4E9023312
:1099B00010BD00BF2472002070B52F4C1E462378C6
:1099C000C909B1EBD31F054616D03EB12B4B1B681E
:1099D000DA0701D4002070BD00BEFBE7284B13B1AD
:1099E0002146AFF3008023690BB90120F3E7224A37
:1099F000032128469847F8E794F90030002B06DB4E
:109A0000A0680028E6D01F4932460EF03BF9A26854
:109A1000E38932443344A260E2889BB29A42E381F4
:109A200001D03F2E24D823699BB994F90030002B34
:109A30004FF000031A46ACBF802119462846FFF7B5
:109A40008DFB0028D1D10D4B1B68DB07C2D500BEB2
:109A5000C1E70221084A2846984701460028E4D178
:109A6000284600F089FA8021284600F085FABCE7F4
:109A70002846FFF707FFE4E724720020F0ED00E03E
:109A80000000000038720020064B1868043B1B6879
:109A9000082B04D103288CBF002001207047002030
:109AA000704700BF3401001042DF704743DF70474A
:109AB00044DF704712DF704743F2040307B51A68AA
:109AC000094B9A424FF000000AD18DF807000DF1C2
:109AD0000700FFF7EFFF9DF80700003818BF0120CF
:109AE00003B05DF804FB00BFDBE5B1510123036067
:109AF000BFF36F8FBFF34F8F074B984202D0043BE9
:109B0000984207D1BFF35B8F044B002283F82021DA
:109B1000BFF35B8F704700BF507002407872002027
:109B200010B40E4BBFF35B8F01464FF00104D3E836
:109B30004F2FC3E84C4FBCF1000FF8D1BFF35B8F40
:109B400012F0FF0F05D006485DF8044B0122FFF725
:109B50007DBA5DF8044BFFF7C9BF00BF98730020C2
:109B6000219B02000D4B03EB4013D98A9A8A521AAB
:109B7000198B92B28A4228BF0A46196914234343BB
:109B800003F1804303F51C33C3F80016C3F8042621
:109B9000034B03EB8000FFF7C3BF00BF78720020C8
:109BA00004700240F0B42C4ABFF35B8F02F590734F
:109BB0004FF00104D3E84F1FC3E8454F002DF9D102
:109BC000BFF35B8F11F0FF0F14460BD0234B5A6885
:109BD000C2F30802003A0146F0BC214818BF012236
:109BE000FFF734BA08281F491AD1D1F8C034D80376
:109BF00008D5BFF35B8F002384F82031BFF35B8F60
:109C0000F0BC704792F80B010028F2D0D2F8002186
:109C10001548C1F8A027C1F8A437F0BCFFF766BF0C
:109C200002EB401500F59473460151F82340EF888C
:109C3000AB88DB1B9BB2A4B2A34228BF2346945936
:109C4000142202FB0011C1F80047C1F80437074B8A
:109C500003EB8000E1E700BF7872002000ED00E038
:109C6000719C02000070024048700240287002405F
:109C7000C0B2FFF797BF07B5FFF71EFF58B100232B
:109C800001A80193FFF714FF0198003818BF0120C5
:109C900003B05DF804FB4FF08043D3F80C24D3F8F5
:109CA0000C0410F4803018BF02F00100F0E7704798
:109CB000014B80225A60704700E100E0074BD3F867
:109CC0000014D3F800240A43C3F800240022C3F888
:109CD00058214FF48002C3F80423704700700240FB
:109CE00070B58A788E883F4CC97802F07F0358009F
:109CF00000EBD21004EB001001F00301C6F30A06DA
:109D000001294FEAD215068129D00120364900FAEF
:109D100003F4D5B903F10C06B040C1F80403D1F83F
:109D2000140503F594732043C1F8140541F823503A
:109D30002D4BC3F8182542F48072C3F80C25BFF3ED
:109D40006F8FBFF34F8F012012E002339840C1F8AC
:109D50000403D1F810352343C1F81035E8E7082B88
:109D600007D0224B186810F0010001D000BE00207F
:109D700070BD1D4BDDB9B4F8181111B18021C3F8C5
:109D80001C150021C3F85011D3F8001311F4001171
:109D900008BFC3F85411144B4FF44011C3F8041317
:109DA000D3F8141541F48071C3F81415C0E70021ED
:109DB000C3F82C11B4F8081111B18021C3F81C1597
:109DC000094BD3F8001311F4001108BFC3F8541164
:109DD0000749C3F80413D3F8101541F48071C3F890
:109DE0001015A5E77872002000700240F0ED00E049
:109DF000000820001F4B80222DE9F041C3F8842089
:109E0000BFF34F8FBFF36F8F01241B4DDFF87480BA
:109E1000274604F10C03A21C07FA02F207FA03F327
:109E20001343C5F80833A30003F1804303F51C3343
:109E300000265E6008EB44109E6220223146013409
:109E40000DF048FF082CE4D10C4BC5F80833202254
:109E5000C5F81C6531466E620948AE640DF03AFFE4
:109E6000C5F81475C5F81075024B80225A60BDE81C
:109E7000F08100BF00E100E0007002400008300007
:109E800078730020787200202DE9FF4101F07F00F7
:109E9000334F0E461C46430003EBD6134FEA03181C
:109EA00007EB0313C90993F80BC03D460CF0FF0EF6
:109EB000BCF1000F0AD02B4B1B6813F0010301D03B
:109EC00000BE0023184604B0BDE8F08147F8082022
:109ED0009C80A3F806E008BB04BB234BD3F8803476
:109EE000C3F3C0138B4219D02048FFF719FE204B53
:109EF00059680394C1F3080100394FF4E06318BFB7
:109F0000012101A8CDE90144ADF804308DF80860C5
:109F10008DF80940FFF712F80123D3E70124D9B9DE
:109F200005EB4012D47220B91248FFF7F9FD234621
:109F3000C8E7BFF36F8FBFF34F8F957A05F0FF032C
:109F4000002DF4D0D47A04F0FF05002CBAD0917221
:109F5000FFF728FE2B46B5E7FFF704FEE7E700BF53
:109F600078720020F0ED00E0007002405070024076
:109F700000ED00E04C70024011F07F0008B507D101
:109F80000D4B01225A65BFF36F8FBFF34F8F08BD92
:109F90000828F8D0084B41F48072C909C3F8182585
:109FA000F1D1064B03EB40139A7A002AEBD0997259
:109FB000FFF7F8FDE7E700BF00700240787200206D
:109FC00011F0770F12D00A4B41F48072C3F80C15D0
:109FD000C3F80C25CA09C3F8181504BF01F594711C
:109FE00043F82120BFF36F8FBFF34F8F704700BF3F
:109FF0000070024008B5184B01220021C3F8142557
:10A00000C3F810250A468B0003F1804303F51C3387
:10A01000013108295A609A62F5D10F4B5A629A644D
:10A02000C3F85821D3F80014D3F800240A43C3F826
:10A030000024D3F80023C3F80823084AC3F80423F4
:10A04000074B4FF49272002118460DF043FE402258
:10A050000283028108BD00BF007002400514C001E8
:10A06000787200202DE9F04FC34BC44AD3F8001397
:10A07000002385B01C4601201D4621FA03F6F60791
:10A080000BD552F8236046B100FA03F6344342F888
:10A090002350BFF36F8FBFF34F8F0133192BECD1D8
:10A0A000E7070FD5FFF7A6FF00234FF480720121C9
:10A0B00001A8CDE901330393ADF804208DF80830F1
:10A0C000FEF73CFF14F4006FAD4D08D0AA4BD3F857
:10A0D000A8369BB2A5F81631012385F81C31A602DB
:10A0E00031D5A54ED6F8143513F4807303D008206B
:10A0F000FFF758FD0123D6F81025D00540F15B810C
:10A1000095F81C319BB1B5F8163100229BB2CDE910
:10A11000012285F81C2103934FF4E062882301217A
:10A1200001A8ADF80420ADF80830FEF707FF0023C2
:10A13000CDE90133039301214FF4407301A8ADF839
:10A140000430FEF7FBFE610236D58B4BD3F800647A
:10A1500006F4E062C3F80024F2050DD50121C3F82E
:10A160002C150023CDE90133039301A84FF480633C
:10A17000ADF80430FEF7E2FE77050FD57E4B0122E5
:10A18000C3F808259A65D3F8002312F4001208BF1B
:10A19000C3F854214FF40012C3F80423B0050BD5C3
:10A1A0000023CDE90133039301214FF4A06301A8FB
:10A1B000ADF80430FEF7C2FE21023BD56E4BD3F85A
:10A1C00080E4D3F88424D3F88814D3F88C74D3F8BB
:10A1D0009064D3F894045FFA81FCD3F89814D3F810
:10A1E0009C341EF07F0F5FFA8EF8D2B2FFB2F6B247
:10A1F000C0B2C9B2DBB201D1052A1BD04FF0000EAC
:10A20000ADF806E08DF80D004FF4C06E8DF80E101D
:10A2100001A80121ADF804E08DF808808DF809202F
:10A220008DF80AC08DF80B708DF80C608DF80F302A
:10A23000FEF784FE534B23406BB1BFF35B8F95F861
:10A240002031BFF35B8F002B40F0BD804E4B1B686D
:10A25000DA0700D500BEDFF82881DFF81C91DFF8AF
:10A2600030B1474600264FF0140A06F10C0324FAD9
:10A2700003F3DB07F1B224D50AFB06933A68D3F85F
:10A28000083705EB461C12FA83F23A60BCF806E088
:10A2900098B273449BB2082E4FEA4612ACF80630CF
:10A2A00000F099803B89834240F09580BCF80630ED
:10A2B000B8889BB2984240F28E8011B95846FFF799
:10A2C0002FFC0136092E07F12007CED12F4B23405A
:10A2D000002B00F08880284BD3F86C74C3F86C74A2
:10A2E000BFF36F8FBFF34F8F14F4806408D0D3F89F
:10A2F0008044D3F880341906C4F3C01440F18C8034
:10A300004FF00009DFF870A000264FF0140B27FA79
:10A3100006F3DA07F0B201D4D6B9CCB10BFB06A331
:10A32000D8F81020D3F8083652FA83F2C8F8102073
:10A3300005EB4612D18A89B251FA83F39BB2D382DC
:10A34000D38AB8F814109BB2994268D9FFF70AFC77
:10A350000136082E08F12008D9D10024012604F185
:10A36000100327FA03F3DB07E0B213D4FCB9B9F109
:10A37000000F1CD00EE000BF0070024000710240D0
:10A3800078720020FCFB1F00F0ED00E000040001EB
:10A390004C70024005EB44116301CA7A002A53D085
:10A3A000CA88898892B291424ED9FFF7FBFB0134EB
:10A3B000082CD4D117E0002B7FF4B9AE4FF4001372
:10A3C000C6F80833B3E60023BFF35B8F85F820316E
:10A3D000BFF35B8F3FE72A44D37A3BB91C4B1B6822
:10A3E000D80700D500BE05B0BDE8F08FD388BB808C
:10A3F0000023D372D2884FF4E060CDE9013392B2EA
:10A40000ADF804008DF8081001A8012103928DF821
:10A410000930FEF793FD54E74FF0010972E7D28A45
:10A4200000234FF4E06160F07F00CDE9013392B288
:10A43000ADF804108DF80800012101A803928DF8F1
:10A440000930FEF77BFD83E72B449E72AFE700BF28
:10A45000F0ED00E001287FB5044600F0B880022846
:10A4600053D0002842D1764BD3F80025002A3DD1A5
:10A470004FF48002C3F808234FF40062C3F80024AD
:10A48000BFF36F8FBFF34F8F6E4B1B68082B10D13C
:10A490006D4B1B68032B0CD86C4AD35C4BB16C4BD7
:10A4A0006C4A1868032118BB49F2753018601160B6
:10A4B0001860FFF7E9FA48B1654B674A1868C02190
:10A4C000C0B949F275301860116018605C4B012406
:10A4D000C3F80045BFF36F8FBFF34F8FFFF7CBFB80
:10A4E00020B9FFF7E9FA38B1FFF7DEFA04B070BD22
:10A4F0001160DEE71160E9E7584B18601B680193B3
:10A50000019B4FF080431C60F0E74D4CD4F80435BC
:10A510001BB1FFF7B0FB0028E8D1D4F800341B05CD
:10A52000FBD54FF40063C4F80034BFF36F8FBFF363
:10A530004F8FFFF7A9FA48B1454B474A18680028E2
:10A540003FD149F275311960106019603D4B1B68AD
:10A55000082B0FD13C4B1B68032B0BD83B4AD35C19
:10A5600043B13B4B3B4A186870BB49F275311960E7
:10A5700010601960FFF788FA48B1394B40F2E37276
:10A580001A6040225A60BFF36F8FBFF34F8F2C4C7D
:10A59000344E80250123C4F81C55C4F80433C6F892
:10A5A0008451FEF767FC00B17560FFF764FB00287B
:10A5B000FBD00123C4F80435BFF36F8FBFF34F8F77
:10A5C00094E700231360C1E700231360D2E71C4B1C
:10A5D000D3F80025002A89D00022C3F80425BFF350
:10A5E0006F8FBFF34F8F1F498020C1F88400BFF3E6
:10A5F0004F8FBFF36F8FD3F80013C3F80813C3F85E
:10A600000025BFF36F8FBFF34F8FFFF755FAA0B14F
:10A61000FFF74CFA144B5968C1F3080100230039C5
:10A62000CDE90133039318BF01214FF4007301A852
:10A63000ADF80430FEF782FC58E70C4B1C60E9E7EC
:10A6400000700240300100103401001074B30300A8
:10A6500000EC064014ED064014EC064000010040FA
:10A660000078024000E100E000ED00E0040000405E
:10A6700008B50020FEF706FC20B9034B1B68DB077A
:10A6800000D500BE08BD00BFF0ED00E0F8B50478CD
:10A6900014F0010405460E461FD103785A07C3F390
:10A6A000800716D44FF0FF31304606F00DFB2C78B2
:10A6B00014F001040FD12B785B0704D42B7843F0FE
:10A6C00004032B70012400231A461946304606F075
:10A6D0007DF92046F8BD3C46F5E70024F9E770B562
:10A6E00004460D4628464FF0FF3106F0EDFA237878
:10A6F000C3F380065B0708D5237813F0010203BF7C
:10A70000237862F382032370002600231A46194639
:10A71000284606F05BF9304670BD00008388C0789B
:10A7200000F003000228C3F30A0313D003281BD050
:10A7300001280DD1022940F2FF3208BF4FF4806298
:10A740009A420DD20C4B186810F0010008D000BEE0
:10A7500000207047022904D1B3F5007FF2D1012017
:10A760007047402BFBD9EDE702290CBF4FF4806204
:10A7700040229A42F3D2E5E7F0ED00E030B50A441A
:10A78000914200D330BD4C78052C06D18C7804F072
:10A790007F0500EB4505E4092B550C782144EFE7D4
:10A7A00072DF704773DF704777DF70470022C27730
:10A7B0000270704770B51C46C37F0E461146E21802
:10A7C0001D2A05460EDC1844621CEA54023022465B
:10A7D00000F8016C0DF056FAEA7F02341444EC776D
:10A7E000012070BD0020FCE7044A02604A68426014
:10A7F0008A688260CA68C260704700BFC8B303003D
:10A800002DE9F041002688B007460D4601EB0218FD
:10A810003446454518D0284601F0F0FC102803D0F6
:10A8200080280AD01035F4E708AA631C02EB440420
:10A83000AA8824F8202CDCB2F4E71EB1002008B06E
:10A84000BDE8F081AE68EDE714B966B90120F6E71E
:10A85000630003F0FE036A4603213846FFF7AAFFB0
:10A860000028F2D1EAE71023324607213846FFF7E5
:10A87000A1FFE4E70122FFF7C3BF1FB5044608317B
:10A880006846FFF7B1FF69462046FFF7F3FF04462D
:10A89000684601F08CFC204604B010BD30B589B08C
:10A8A0000446202269460C4801F066FF0346E07F1B
:10A8B000C2181D2AC5BFC0F11D0308250925DBB23A
:10A8C0006A4629462046FFF775FF18B1A5F109032E
:10A8D0005842584109B030BDB473002013B5044646
:10A8E000064801F081FF01238DF807000DF10702F2
:10A8F0000A212046FFF75EFF02B010BDB4730020AE
:10A9000007B501238DF807100DF107021946FFF76F
:10A9100051FF03B05DF804FB08B50346FFF746FF9F
:10A9200006490022C3E9081205499962A1F55601BA
:10A93000C3E90B12C3E90D22184608BDFF0101004F
:10A940002000F400C18570470185428581857047EC
:10A9500080F822107047000070B5044688B00E469B
:10A9600015460021182202A80DF0B4F994F8213000
:10A970008DF8083005EB8503204A049603EB83032A
:10A980009B00ADF814301368DB0709D41C4BE17F42
:10A9900099801C499960C97F1C60998101231360CB
:10A9A000174902AA04F12000FFF7FAFE10B10020B7
:10A9B00008B070BD94F820101348019101F014FF05
:10A9C000019902460120FFF7EFFE0028EFD194F82D
:10A9D00020000121FFF7E6FE0028E8D10A4801F037
:10A9E00069FF628EA68595424FF0010094BF521B0D
:10A9F000921A84F823006286DAE700BF9C73002075
:10AA0000A0730020307A0020B473002010B50446F3
:10AA1000418601860548FA2101F0ECFEE28D218D88
:10AA20002046BDE81040FFF797BF00BFB473002079
:10AA300030B50B888D88112B85B004460FD0262B9E
:10AA40002AD0102B09D1CB7B012B06D1426AAB4017
:10AA500013434362002380F8233005B030BD436ABE
:10AA6000EB40DB07F9D5224801F054F80028F4D177
:10AA7000012202FA05F3626A22EA030294F8233003
:10AA80006262002BE9D194F82230002BE5D0218EB0
:10AA90002046FFF7BBFFE0E70B7A012BDDD1002357
:10AAA00080F823304FF4FA71114801F0A3FE238E91
:10AAB00043B9A36B03B198470022618D2046FFF78D
:10AAC0004BFFCAE7658E25B1A36B03B19847628E31
:10AAD000F3E7074801F006FF626B002ABDD000953E
:10AAE00003AB29462846039507F016FEB5E700BFDD
:10AAF000B473002075DF70474FF010114FF4480217
:10AB0000C0E900120022C0E902227047014800F0AB
:10AB100051BE00BFA47A002010B5094801F0B2FE72
:10AB2000044608B9002010BD00F0DAFC0028F9D076
:10AB3000204600F0DEFC831E58425841F3E700BF78
:10AB4000B473002070B5002506462C46A9B23046E5
:10AB5000FFF7E2FF08B10134E4B20135142DF5D15D
:10AB6000204670BD70B58E8819480C4694B03146A9
:10AB700001F088FE23881A2B05460ED01F2B19D012
:10AB8000102B08D1694600F0FCFC20B111486A4640
:10AB9000314601F0EFF914B070BD00F0A3FC0028BD
:10ABA000F9D0284600F0A0FC0028F4D1284600F097
:10ABB000FFFCF0E754F8080F61686B4603C3694671
:10ABC000BDF80030ADF802303046FFF793FFE2E702
:10ABD000B4730020D4730020AADF7047ABDF704746
:10ABE000ACDF7047ADDF7047AEDF7047B0DF704756
:10ABF00010B5044B044640F8043B01F0D8FA204657
:10AC000010BD00BF84B3030010B50446FFF7F0FF8A
:10AC1000204607F0DBFA204610BDF0B50B888E8881
:10AC2000502B8BB004460D4600F0BB80512B26D133
:10AC30008B79012B0CD1826C0AB390F844305B07FE
:10AC400001F108071DD4A36C3A46214630469847C7
:10AC5000AF79022F13D1AB7B042B2CD0062B6CD0F9
:10AC6000012B0CD1E26C52B194F844301F0705F16E
:10AC7000080513D4E36C2A462146304698470BB0AA
:10AC8000F0BD0323CDE906600093082106AB3846EA
:10AC9000089707F041FD0028D5D0D9E7032300939A
:10ACA0000E2106AB2846CDE90664089507F034FD71
:10ACB0000028E4D1DEE7E36B3BB94FF4806005F098
:10ACC00059FD4FF48063E06323641022002106A83D
:10ACD0000DF000F802236A8A8DF818302B8AB4F838
:10ACE00040109818884208DD40F20913ADF81C3076
:10ACF00006A93046FFF77AFFC1E70020ADF81C0037
:10AD00009DF81E00ADF8203040F001008DF81E00C7
:10AD1000E06BADF8222005F11401184409910CF004
:10AD2000B1FF6A8A2B8A1344B4F842209BB2934243
:10AD300038BF1346A4F84230DAE7E36B002B9ED00D
:10AD40001022002102A80CF0C5FF002302A9304602
:10AD50008DF80870ADF80C30FFF748FF226D52B146
:10AD600094F84430D8070DD4256DB4F84230E26B26
:10AD700021463046A847E06B05F018FD0023C4E9E2
:10AD80000F337CE70423E06BB4F84210009306AB6A
:10AD9000CDE90664CDE9080107F0BEFC0028E3D048
:10ADA000E9E7CA88438E9A420DD1026D5AB190F8F4
:10ADB000443001F11207D90719D43A462B8A276D7E
:10ADC00021463046B847EA88E38E9A427FF457AF6F
:10ADD000626D002A3FF453AF94F844306D8A9B07AC
:10ADE00013D4636D2A4621463046984747E7298A9F
:10ADF0000423CDE906600093384606ABCDE908711F
:10AE000007F08AFC0028D8D0DDE703230021009357
:10AE1000084606ABCDE90664089507F07DFC0028DE
:10AE2000DFD02CE7F0B5744B04461B68836197B004
:10AE3000043001F020FA94F82E30A06913F03202A9
:10AE400008BF84F82F2013F00C0308BF84F83030BB
:10AE500069460DF1010201F0A1F994F82F109DF857
:10AE600001600B0716D09DF8007001F00F0307F08A
:10AE70000F029A424FEA11104FEA171506D3794094
:10AE80000F0701D1854201D32846134643EA001338
:10AE900084F82F3094F83020110714D002F00F03FB
:10AEA00006F00F0083424FEA12114FEA161506D83A
:10AEB0007240120701D1A94201D82946034643EA4C
:10AEC000011384F8303094F82E3013F030050AD096
:10AED00002238DF80630494B1B788DF8043094F826
:10AEE0002F308DF805301C2200210FA80CF0F2FE47
:10AEF00094F82E308DF83C300023002D71D11A4685
:10AF0000ADF809309DF80A301492012262F3420331
:10AF1000206A8DF80A3094F82F308DF8083058B137
:10AF200003784BB110900DF0BAFD02AB80B2ADF8D2
:10AF30004400ADF84600139394F8263013B104F1A1
:10AF40002603129304F1080394F83120059304F1C9
:10AF50002F030693E38A12F0010F4FF0000008BFA1
:10AF60001A46CDE9070018BF0246ADF82030E36964
:10AF7000ADF81C20099305AA04F132030FA9FFF7CD
:10AF80002BFE054650BB94F8253063B3ADF80D0099
:10AF90009DF80E20012363F342028DF81230022344
:10AFA000CDE90C008DF80E20ADF8303094F82F204C
:10AFB000ADF8343004AB8DF80C200A9342F6081239
:10AFC00003ABADF810200B930DF1020204F1240342
:10AFD0000AA90E93FFF702FE28B10546284617B0CE
:10AFE000F0BD01AA8CE7237D002BF7D12146044850
:10AFF00000F042FDF2E700BFB073002078B3030019
:10B00000F47700201422C282104A127880F82F2090
:10B01000002380F830200322C0E90F33C0E9123347
:10B02000C0E9143380F8443003758361036283847C
:10B03000C0F82630C0F82A3080F82E30C36180F87E
:10B040003120438643630387704700BF78B3030012
:10B0500010B5054B044640F8043B01F0AFF820461C
:10B06000FFF7D0FF10BD00BF84B30300064B0360A1
:10B0700010B5064B43604B6883608B68C360CB6838
:10B080000361FFF7BFFF10BD84B30300C8B3030023
:10B090004B6883608B68C360CB68036170478069CD
:10B0A000704701230375704780F82E10704790F8A1
:10B0B000313029B1C1826FF3000380F8313070471D
:10B0C00043F00103F9E780F82F1080F83020704733
:10B0D00090F84430016562F3000380F84430704713
:10B0E00051F8322F02604A684260704713B5C38A34
:10B0F00001919A4228BF1A46418EADF800200024E3
:10B100006A464FF6FF70ADF80240FFF769FD18B9C7
:10B11000BDF8000002B010BD2046FBE730B5054683
:10B1200085B011480C4601F088FBD8B1E88EC8B153
:10B130000223ADF8083001460DF10603002502AAEE
:10B1400020460393ADF80A50FFF74CFD43F201434C
:10B15000984204D1ADF80650BDF8060002E0002880
:10B16000FAD080B205B030BDB473002008B590F8B5
:10B170002E3013F0100304D0FFF7D0FF00F00100D1
:10B1800008BD1846FCE7000010B50446044801F06D
:10B190006FFB01462046BDE81040FFF7E7BF00BF48
:10B1A000B47300202DE9F04F1C4690F82E30DB06DA
:10B1B00087B006460D46904604D40027384607B0AF
:10B1C000BDE8F08F4FF6FF73994203D1264801F096
:10B1D0004FFB0546F38A29469C42304628BF1C4651
:10B1E000FFF7C4FF074690B31F48294601F04AFB0A
:10B1F00081460028E1D000F07EF903381FFA80FB79
:10B200004FF0000A002CD9D0484600F084F90028FD
:10B21000D3D0A3455B4628BF2346ADF806304FF098
:10B2200001038DF80A30738EADF8083002A90DF1D4
:10B2300006032846CDE90438CDF80BA08DF80FA001
:10B24000FFF7D2FC48B1484600F06EF9B5E7224658
:10B2500041463046FFF74AFFB0E7BDF80620A41A82
:10B26000A4B29044CEE700BFB473002013460A4650
:10B270004FF6FF71FFF796BFA1DF7047A3DF70475E
:10B28000A4DF7047002383837047006A00F0D0B8C2
:10B29000808B70472DE9F0410B88CF88382B86B022
:10B2A00004460D4659D0392B12D0362B15D1006AE1
:10B2B00000F0BEF801465D4801F0E4FA00F01BF929
:10B2C00004F124080646002F00F09380404648E031
:10B2D0000B7B012B04D0022B1ED006B0BDE8F08101
:10B2E000426B002AF9D090F83C3001F11006D907E2
:10B2F00005D4636BEA89314620469847EDE703237E
:10B30000CDE90306E9890093304603AB059107F0C8
:10B3100003FA0028E1D1ECE7826B002ADDD090F837
:10B320003C308F889B0701F1100609D4A36BEA8992
:10B3300031462046984769893846FFF7A1FFCCE798
:10B340000323C9890093CDE9030603AB3046059179
:10B3500007F0E2F90028E9D0EDE700F124061FB17B
:10B36000304602F0FAF9B8E70A8A3046394602F068
:10B37000DBF995F80C80B8F1010FF1D0B8F1040FAA
:10B38000ABD1206A00F054F80146284801F07AFA5F
:10B3900000F0B1F8431F208E9BB2984228BF184698
:10B3A000A38BB8B12A8AADF80E30EB89ADF8120044
:10B3B0001344ADF81030206AE36A8DF80D708DF8F3
:10B3C0000C80059300F034F803A9FFF757FF00281D
:10B3D00083D0C5E7CDE9040040F20512206AADF83C
:10B3E0000C20ADF80E3000F023F803A9FFF746FF5C
:10B3F000B6E7EA8905F11001404602F095F9238E7F
:10B40000002B3FF463AF033EEB89B6B2013EB3427B
:10B41000FFF65CAF206A00F00BF8628EA18B92B24F
:10B42000FFF72AFF00287FF451AF56E7B4730020DE
:10B43000808870478FDF704790DF7047B1DF7047BB
:10B44000B5DF704710B5074B03600446806A05F00E
:10B45000FFFCE06A05F0FCFC206B08B105F0F8FC8D
:10B46000204610BD9CB3030010B50446FFF7EAFF69
:10B47000204606F0ABFE204610BD000010B5044685
:10B480001648A180012121752174518920602181F4
:10B4900017209189E08061811B20D189E081A18101
:10B4A00092E80300D279A183090CA061A1776274AC
:10B4B0001946184605F081FA9DF80810A062084662
:10B4C00005F07BFA0023236363754FF48853E3820E
:10B4D0004FF6FF73E0626382204610BD9CB3030009
:10B4E000007D7047407D7047C07D113818BF012036
:10B4F0007047407C7047C0887047008970474B7D1B
:10B500003BB11F310B6803608B8883808B7983711B
:10B5100070471831F6E708B56621806A05F0D4FB5C
:10B52000003818BF012008BD08B500231A46194687
:10B53000806A05F04BFA003818BF012008BD8188E9
:10B5400000F11F02407C02F07DB9818800F11F02EA
:10B55000407C02F02FBA38B50A4605460C46818871
:10B56000407C02F041F92146012051F8483FC5F8DE
:10B570001F308B88A5F823308B7985F825306875C6
:10B5800038BD38B50A4605460C4600F11801407C26
:10B5900002F07AF9687550B1214651F8483FC5F874
:10B5A0001F308B88A5F823308B7985F8253038BD7E
:10B5B00010B5447D24B100F11F01407C02F054F924
:10B5C000204610BD0B883A2B73B504460D4672D049
:10B5D00032D8113B9AB2132A01D902B070BD132B95
:10B5E000FBD801A252F823F069B602008DB6020022
:10B5F000DBB50200DBB50200DBB50200DBB5020003
:10B60000DBB50200DBB50200DBB502006FB602005D
:10B61000DBB50200DBB50200DBB50200DBB50200E2
:10B62000DBB50200DBB50200CFB60200DFB60200D8
:10B63000BDB60200C9B602003C2B65D0523B9AB29F
:10B64000052ACAD8052BC8D801A252F823F000BF9A
:10B650004FB7020025B70200DBB502009BB602001F
:10B660003DB70200EDB6020000230375B5E70B7A83
:10B67000C375112BB1D0FFF768FF03460028ACD18A
:10B68000A0881A461946FFF7D9FEA6E74B89038121
:10B690008B894381CB8983819FE7617C2D4801F0B1
:10B6A000EAF8EB88984228BF184681B2E180A0886A
:10B6B000FFF7C6FE91E74B89C3808EE70022114653
:10B6C0008088FFF7B9FE88E70B89C38185E70023EF
:10B6D00001A98088ADF80430FFF7ACFE7DE70B7A56
:10B6E000002B7FF47AAF4B7A037476E70026AA79B1
:10B6F000F3B29A427FF671AF0023A06A1A46194648
:10B7000005F064F90136F2E70026AA7AF3B29A420C
:10B710007FF663AF0023E06A1A46194605F056F932
:10B720000136F2E7206B0123A37500283FF455AFE3
:10B7300000231A46194605F049F94EE7AB79002B6C
:10B740007FF44BAF206BA3750028F2D145E70023AF
:10B7500096E700BFB473002030B58BB085880591A3
:10B7600006A84FF42851144600F032FD01224FF68E
:10B77000FF73CDE901230094059B064806AA2946DC
:10B7800000F068F8044606A800F011FD20460BB052
:10B7900030BD00BFF477002010B50446043001F03E
:10B7A00076FF034B236000232375204610BD00BFA6
:10B7B0000100FFFF017D10B5044621B9043001F0FE
:10B7C0006AFF0123237510BD007D70470B88322B63
:10B7D00010B512D0332B1ED0302B26D1CB88041DB0
:10B7E00033B94B8923B10A221144204601F09CFF52
:10B7F0002046BDE8104001F0B0BFCB88041D002BEF
:10B80000F6D14A89002AF3D002EB820252000232BA
:10B8100092B20A31E9E7CB88041D002BE8D14A89AE
:10B82000002AE5D002EB4202F0E710BDA0DF70472E
:10B8300010B5044600F5F87001F029FFF822002148
:10B8400020460CF047FAF8220021A0180CF042FA2A
:10B85000204610BD2DE9F7439846BDF82C30ADF8D1
:10B8600004300546BDF830301948ADF806300E46B4
:10B87000174601F007F805F5F8758146284601F0EE
:10B8800051FF044628B14846FFF737FE04F047FF52
:10B89000F4E70121284601F0FEFEBDF828204146CC
:10B8A000284601F00DFF01AA391D3046FFF7BEFF03
:10B8B00028B94FF4FA71284601F007FF04462846DC
:10B8C00001F0F2FE24EAE474A0B203B0BDE8F08314
:10B8D000B47300202DE9F04F8F880E8885B00446A0
:10B8E0000D466448394600F0CDFFA6F11003012B48
:10B8F00082462ED94FF0000B94F854205FFA8BF358
:10B900009A423AD804F5A87A4FF0000994F84C31DD
:10B910004B4571DD5AF8040BFFF7B7FCB84215D15F
:10B92000382E03D0392E01D0362E0FD1B5F80A802B
:10B93000B8F1000F0AD05AF804BC5846FFF7A8FC2B
:10B94000404503D129465846FFF7A4FC09F10109F7
:10B95000DCE74FF0000822785FFA88F39A42C9D9F1
:10B9600004EB8303112E5868036839460CBF1B682B
:10B970005B68984708F10108EDE71633502E54F83C
:10B98000239021D0512E34D1AB79B5F80880022B09
:10B990001CD1AB7B062B19D1D9F800304846DB68A7
:10B9A000294698475046FFF79FFD10B3502E20D1EF
:10B9B000494602A8FFF794FBBDF80C30434518D167
:10B9C0005046FFF7BCFD14E0B5F80680B8F1000F53
:10B9D0000FD049466846FFF783FBBDF8003043456A
:10B9E000DAD0494602A8FFF77BFBBDF80C3043458F
:10B9F000D2D00BF1010B7FE7112E25D1002694F850
:10BA00004C31F5B2AB420DD904EB8505D5F85001A8
:10BA1000FFF73BFCB84203D1D5F85001FFF732FCE9
:10BA20000136ECE7002594F8F820EBB29A421DD9D4
:10BA300004EB8303D3F8FC008388BB4202D1036884
:10BA40001B6898470135EEE7352E0FD16B896BB136
:10BA500004F5F874AA8905F11001204601F064FE8E
:10BA6000204605B0BDE8F04F01F077BE05B0BDE857
:10BA7000F08F00BFB473002090F85430272B9FBF85
:10BA80005A1C163380F8542040F8231094BF01202C
:10BA9000002070470378132B9FBF5A1C027000EBE5
:10BAA0008300416094BF01200020704778DF704719
:10BAB0007ADF704705490022C0E9022203460246A8
:10BAC0000868496803C21846704700BFA4B3030062
:10BAD00008B5FFF7EDFF28B9FFF7E8FFB0FA80F0EF
